:020000040800F2
:100000000000082025270008ED1C0008F51C00084A
:10001000FD1C0008051D00080D1D00080000000063
:10002000000000000000000000000000E1A900083E
:10003000151D000800000000F1AB000859AC0008D5
:100040007527000875270008752700087527000820
:100050007527000875270008752700087527000810
:100060007527000875270008752700087527000800
:1000700075270008752700087527000875270008F0
:1000800075270008752700087527000875270008E0
:1000900075270008752700087527000875270008D0
:1000A00075270008752700087527000875270008C0
:1000B000251D00087527000875270008752700080A
:1000C00075270008752700087527000875270008A0
:1000D0007527000875270008752700087527000890
:1000E0007527000875270008752700087527000880
:1000F00075270008391D00087527000875270008B6
:10010000752700087527000875270008752700085F
:10011000752700087527000875270008752700084F
:10012000752700087527000875270008752700083F
:10013000752700084D1D0008752700087527000861
:10014000752700087527000875270008752700081F
:10015000752700087527000875270008752700080F
:1001600075270008752700087527000875270008FF
:100170007527000875270008752700080000000093
:1001800075270008752700087527000875270008DF
:1001900075270008752700087527000875270008CF
:1001A00075270008752700087527000875270008BF
:1001B00075270008752700087527000875270008AF
:1001C0007527000875270008000000007527000843
:1001D000752700087527000875270008752700088F
:1001E000752700087527000875270008752700087F
:0801F0007527000875270008BF
:1002000010B5054C237833B9044B13B10448AFF350
:1002100000800123237010BDD001002000000000E9
:10022000AC7E010808B5034B1BB103490348AFF38B
:10023000008008BD00000000D4010020AC7E010851
:10024000034613F8012B002AFBD1181A0138704716
:1002500001F0FF01102A2BDB10F0070F08D010F877
:10026000013B013A8B422DD010F0070F42B3F6D17B
:10027000F0B441EA012141EA014122F007047FF094
:1002800000070023F0E80256083C85EA010586EAEB
:10029000010685FA47F5A3FA87F586FA47F6A5FA27
:1002A00087F68EB9EED1F0BC01F0FF0102F0070233
:1002B00032B110F8013B013A83EA010313B1F8D1DE
:1002C0000020704701387047002D06BF35460338BF
:1002D000073815F0010F07D1013015F4807F02BFF8
:1002E000013015F4C03F0130F0BC0138704700BF49
:1002F00053B94AB9002908BF00281CBF4FF0FF318D
:100300004FF0FF3000F088B9ADF1080C6DE904CE74
:1003100000F006F8DDF804E0DDE9022304B07047E0
:100320002DE9F047089D8E4604468846002B4AD1A9
:100330008A42174662D9B2FA82F64EB1C6F120035C
:1003400001FA06F820FA03F3B74043EA0808B4407C
:100350004FEA174E1FFA87FCB8FBFEF1230C0EFB89
:10036000118843EA084301FB0CF29A4209D9FB18B1
:1003700001F1FF3080F0EA809A4240F2E7800239D2
:100380003B449A1AA3B2B2FBFEF00EFB102243EAE2
:10039000024300FB0CFC9C4509D9FB1800F1FF321D
:1003A00080F0D6809C4540F2D3803B44023840EA3E
:1003B0000140A3EB0C0300211DB1F3400022C5E96D
:1003C0000032BDE8F0878B4205D90DB1C5E90001C7
:1003D00000210846F5E7B3FA83F1002946D17345B9
:1003E00002D3824200F20581841A6EEB03020120DF
:1003F0009046002DE5D0C5E90048E2E7002A00F06C
:100400009080B2FA82F6002E40F0A4808A1A030C83
:100410004FEA174E80B2BCB20121B2FBFEFC0EFBCC
:100420001C2243EA024304FB0CF29A4207D9FB1850
:100430000CF1FF3802D29A4200F2E080C4469B1AC7
:10044000B3FBFEF20EFB123340EA034302FB04F45B
:100450009C4207D9FB1802F1FF3002D29C4200F205
:10046000CA8002461B1B42EA0C40A5E7C1F12006E8
:100470008B4022FA06F71F430EFA01F420FA06F326
:100480002EFA06FE4FEA1749234300FA01F81FFA35
:1004900087FCBEFBF9F01C0C09FB10EE44EA0E448D
:1004A00000FB0CFEA64502FA01F209D93C1900F145
:1004B000FF3A80F09C80A64540F2998002383C4487
:1004C000A4EB0E041FFA83FEB4FBF9F309FB1344FB
:1004D0004EEA044403FB0CFCA44508D93C1903F183
:1004E000FF3E80F08280A4457FD9023B3C4443EA32
:1004F0000040A4EB0C04A0FB02EC64457346E1460B
:1005000062D35FD05DB1B8EB030264EB090404FA77
:1005100006F622FA01F31E43CC40C5E9006400212F
:100520004FE7B1FBF2FC010C41EA0E4180B240EA18
:1005300001423B4638463C46B846BE462026B1FB03
:10054000F7F1A2EB080241EA0C4166E7014618E721
:1005500010462CE7C6F120022EFA02F3B740B14054
:1005600020FA02F24FEA174E0A43B3FBFEF8BCB280
:100570000EFB1833110C41EA034108FB04F9B040AB
:1005800089454FEA104380B23ED9791808F1FF3C03
:1005900001D289451FD8A1EB0901B1FBFEF909FB86
:1005A00004F80EFB191192B242EA0142424529D2E7
:1005B000BA1809F1FF31C4D24245C2D2A9F10201F1
:1005C0003A44BEE7F0459DD2BEEB02036CEB070C4C
:1005D0000138E14696E7A7EB09094944A8F1020C66
:1005E000B1FBFEF909FB04F8DBE773467FE75046F1
:1005F00066E70846FDE63B44023A33E7ACF1020CFD
:100600003B441CE749469CE7A1EB0901C446B1FB0A
:10061000FEF909FB04F8C4E7704700BF80B487B057
:1006200000AF786039607B681B78FB75FB7D013318
:100630001A4A13441B7803F00303012B02D1FB7DFC
:10064000203300E0FB7D3B613B681B78FB73FB7B49
:100650000133124A13441B7803F00303012B02D128
:10066000FB7B203300E0FB7BBB603A69BB689A42AE
:1006700001D000230BE03B69002B01D1012306E0F0
:100680007B6801337B603B6801333B60CBE71846F6
:100690001C37BD465DF8047B704700BFB9B5010843
:1006A00080B59AB000AFF860B9607A603B60FB68D3
:1006B000002B00F09E80BB68002B00F09A80F86849
:1006C000FFF7BEFDF865FB6D012B1DD9FB681B789C
:1006D000AA2B19D1FB6D013BFA6813441B78BB2B85
:1006E00012D17B68002B0AD0444B1B68002B06D02C
:1006F000424B1A687B68F96DF86898477AE0BB68E6
:1007000039683F48984775E03E49F868FFF786FF2B
:100710000346002B04D0BB6839683B48984769E022
:100720003A49F868FFF77AFF0346002B06D13849AB
:10073000F868FFF773FF0346002B07D0BB683968E2
:1007400034489847344B00225A6253E0042233491C
:10075000F86815F09FFF0346002B45D100237B6608
:10076000FB6804333B6624E03B6E1B7887F8583007
:100770003B6E01331B7887F85930002387F85A30D5
:1007800000237B6507F1540207F1580324491846FA
:1007900015F00CFE0346012B18D1796D7B6E5A1CA7
:1007A0007A66CAB268333B4403F8542C3B6E02337A
:1007B0003B663B6E1B78002B09D03B6E01331B78E8
:1007C000002B04D07B6E3F2BCED900E000BF7B6EA8
:1007D000002B0FD07B68002B0CD007F114007B6836
:1007E0003A68796E984705E0BB6839680D489847C4
:1007F00000E000BF6837BD4680BD00BF341C00204C
:10080000C47E0108DC7E0108E47E0108E87E010860
:10081000F47E0108007F010800000140087F010804
:10082000107F0108147F010880B58CB002AFF8601A
:10083000B9607A603B60FB68002B00F0E780BB6822
:10084000002B00F0E380764B1B68C3F58053BA6839
:100850009A4220D9724B1A68BB681344A3F580539F
:100860003B626F4B1B683A6A9A4203D36C4B00227F
:100870001A6010E03B6A6B4A9918694B1A683B6A28
:10088000D31A1A46674815F0E3FE654B1A683B6AAF
:10089000D31A634A1360624B1B68624A1344BA68F6
:1008A000F968184615F0D9FF5D4B1A68BB68134408
:1008B0005B4A13602DE000237B6202E07B6A013318
:1008C0007B62574B1B687A6A9A4205D2554A7B6A0B
:1008D00013441B78AA2BF1D13B6B00933B687A68D9
:1008E000796A504800F0A6F87B6A4E4A99184C4B3A
:1008F0001A687B6AD31A1A464A4815F0A9FE484B73
:100900001A687B6AD31A464A1360454B1B68002B52
:100910007ED0434B1B68002B03D0424B1B78AA2B85
:10092000C9D13F4B1B68032B74D93E4B5B78FB77D7
:100930003C4B9B781AB23B4BDB781BB21B021BB2C1
:1009400013431BB2BB83BB8B0933BB61BB69B3F5DC
:10095000805F0DD93449324B1B68013B1A46314840
:1009600015F076FE2E4B1B68013B2D4A13604CE0C0
:100970002B4B1B68BA699A424ED82A4B7B61BB69E4
:10098000013B7A6913441B78BB2B0DD02649244BBD
:100990001B68013B1A46234815F05AFE204B1B6882
:1009A000013B1F4A136030E0BB699BB2194678696E
:1009B00000F008FA0346FB74FB7C002B14D13B6863
:1009C000002B0AD0194B1B68002B06D0174B1A6856
:1009D0003B68B9697869984706E07B68002B03D0CB
:1009E0007B68396B12489847BB690E4A99180C4BC3
:1009F0001A68BB69D31A1A460A4815F029FE084B33
:100A00001A68BB69D31A064A136053E700BF04E0B3
:100A100000BF02E000BF00E000BF2837BD4680BD38
:100A2000EC110020EC010020ED010020341C00201E
:100A3000C47E010880B586B000AFF860B9607A6006
:100A40003B6000237B6137E0FA687B6913441B78C5
:100A5000FB74FB7C0D2B2BD0FB7C0A2B1BD11B4B7F
:100A60001B68FF2B05D8194B1B68194A0021D1546C
:100A700003E0174B002283F8FF20144B1B68002B68
:100A800005D03B6A3A6879681148FFF709FE0F4BB9
:100A900000221A600DE00D4B1B68FE2B09D80B4B92
:100AA0001B685A1C09490A600949FA7CCA5400E0CB
:100AB00000BF7B6901337B617A69BB689A42C3D30B
:100AC00000BF00BF1837BD4680BD00BFF012002038
:100AD000F011002080B500AF0D4B0E4A1A600C4B90
:100AE00000221A710A4B00225A71094B00225A61E6
:100AF000074B00229A61064B01221A62044802F059
:100B00007FF80346002B01D001F048F800BF80BDFC
:100B1000F41200200030024080B485B000AF78604D
:100B20007B681B680A4A93420BD10A4B1B6B094A2C
:100B300043F480531363074B1B6B03F48053FB6038
:100B4000FB6800BF1437BD465DF8047B704700BFEB
:100B5000003002400038024080B483B000AF03464A
:100B6000FB71FB79042B17D801A252F823F000BFC8
:100B7000850B0008890B00088D0B0008910B0008FD
:100B8000950B0008084B08E0084B06E0084B04E012
:100B9000084B02E0084B00E0084B18460C37BD46F6
:100BA0005DF8047B704700BF2C7F0108347F01088B
:100BB0003C7F0108447F01084C7F0108507F0108F9
:100BC00080B487B000AF786039604FF0FF337B614D
:100BD00000233B611EE07A683B6913441B781B06C7
:100BE0007A6953407B610023FB730DE07B69002B26
:100BF00004DA7B695A000D4B534001E07B695B00CE
:100C00007B61FB7B0133FB73FB7B072BEED93B69DD
:100C100001333B613A693B689A42DCD37B691846F1
:100C20001C37BD465DF8047B704700BFB71DC1048B
:100C300080B582B000AF78600B467B807B68002B6C
:100C40000AD07B88002B07D07A884FF0FF33796871
:100C5000034805F067FE00E000BF0837BD4680BDD1
:100C6000881C00200FB480B5C2B000AF07F58A72AF
:100C700007F58473A3F584731A6007F58473A3F5ED
:100C80008473381D1B68D7F810214FF4807115F05C
:100C90002DFCC7F80401D7F80431002B0FDBD7F87F
:100CA0000431FF2B02D9FF23C7F80431D7F80431F0
:100CB0009AB23B1D11461846FFF7BAFF00E000BF8D
:100CC00007F58477BD46BDE8804004B0704700005A
:100CD00080B500AF0948FFF7C5FF094B00221A6035
:100CE000084B00221A60084B00221A60074BFF22B3
:100CF0001A70074B01221A7000BF80BD547F010893
:100D0000241700202C17002028170020301700205F
:100D10002117002080B582B000AF78603960074AA3
:100D20007B681360064A3B6813603A687968054837
:100D3000FFF798FF00BF0837BD4680BD341700207D
:100D4000381700206C7F010880B586B000AF0346DD
:100D5000FB7107F10C0300221A605A601A81AA2362
:100D60003B7303237B730123FB81FB793B74BB2320
:100D70007B7507F10C03043301211846FFF720FFB0
:100D80000346C7F811300C4B1B68002B08D00A4BE8
:100D90001B680A4A126807F10C000A21984707E00D
:100DA00007F10C014FF0FF330A22054805F0BAFDA8
:100DB00000BF1837BD4680BD34170020381700200B
:100DC000881C0020F0B58FB006AF78600B467B80A2
:100DD0000123FB777B68002B02D07B88082B06D889
:100DE0007B881A4679687F48FFF73CFFF5E07B680F
:100DF0001B78AA2B06D17B88013B7A6813441B78A9
:100E0000BB2B0DD07B681B7819467B88013B7A6829
:100E100013441B781A467B887348FFF723FFDCE0F6
:100E20007B6801331B78BB777B6802331B781AB26F
:100E30007B6803331B781BB21B021BB213431BB22C
:100E4000BB83BB8B0933BB61BC7FBD8B7E88674B8B
:100E50001B781846FFF780FE0346009333462A4668
:100E600021466348FFF7FEFE7B88BA699A4206D0A6
:100E70007B88BA6919465F48FFF7F4FEADE07B88CE
:100E800040F2094293420AD97B8840F2094219464E
:100E90005948FFF7E7FE0120FFF756FF9DE07B680A
:100EA00004337B61BB8B7A6913441B781946BB8B77
:100EB00001337A6913441B781B0241EA0302BB8B9E
:100EC000023379690B441B781B041A43BB8B033331
:100ED00079690B441B781B0613433B61BB8B194696
:100EE0007869FFF76DFEF860BB7F022B28D17B6825
:100EF0001B781D467B6801331B781E467B680233D6
:100F00001B789C467B6803331B781A467B68043346
:100F10001B7819467B6805331B7818467B680633B7
:100F20001B781C467B6807331B780493039402905C
:100F3000019100926346324629463048FFF792FEFF
:100F4000FA683B699A420CD0BA7FBB8B0093134678
:100F50003A69F9682A48FFF785FE0120FFF7F4FE99
:100F60003BE0224B1B78002B16D1BB7F002B0CD112
:100F7000BB8B012B09D17B691B78002B05D1214844
:100F8000FFF770FEFFF7A4FE06E01F48FFF76AFEBA
:100F90000120FFF7D9FE20E07B881A4679681B48BC
:100FA00015F05BFC7B881946184800F037F80346BB
:100FB000FB77F97FFB7F002B01D1154B00E0154B30
:100FC0001A461548FFF74EFEFB7F002B14BF012386
:100FD0000023DBB21846FFF7B7FEFB7F1846243725
:100FE000BD46F0BD947F0108C47F01082117002091
:100FF00004800108388001086C800108A080010885
:10100000E0800108208101084481010818130020B4
:1010100070810108748101087C810108F0B59DB0E0
:1010200004AF78600B467B80012387F85F307B68D4
:10103000002B02D07B88002B06D17B881A4679686A
:101040008448FFF70FFEE1E1834B1B781846FFF75A
:1010500083FD01467B881A468048FFF703FE7B68C4
:10106000BB65BB6D5B78002B07D1BB6D1B79022B79
:1010700003D17B48FFF7F6FDC8E1774B1B78042BC3
:1010800000F2B48101A252F823F000BFA1100008C1
:10109000A9100008E7100008BB1100088F13000812
:1010A000002387F85F30B1E17B683B643B6C5B7881
:1010B00019463B6C1B791A466A48FFF7D3FD3B6C17
:1010C0005B78002B40F099813B6C1B79002B40F042
:1010D00094816548FFF7C6FD5F4B02221A7000231A
:1010E00087F85F3089E17B687B647B6C5B781946AD
:1010F0007B6C5B889BB21A465C48FFF7B3FD7B6C48
:101100005B78022B40F07B817B6C5B68584A1360F4
:101110007B6C9B68574A1360554B1B68554A126895
:1011200019465548FFF79EFD544B1B681C4607F1B6
:101130000C0604F1300C35462346186859689A6845
:10114000DB680FC5103410366445F4D132462346AF
:101150001B8813807B7C18463B7C1C46BB7C1D4651
:1011600097F8283097F8272097F8291002910192D4
:1011700000932B46224601464148FFF773FD00F0DD
:10118000D7FA03461A463F4B1A703E4B1B78194656
:101190003D48FFF767FD3B4B1B78FF2B09D02E4BDB
:1011A00003221A703948FFF75DFD002387F85F308E
:1011B00025E13748FFF756FD21E17B685B7887F82A
:1011C00053307B6802331B781AB27B6803331B7879
:1011D0001BB21B021BB213431BB2A7F8503097F887
:1011E0005310B7F850202B4B1868214B1B68009305
:1011F00003462948FFF736FD97F85330012B40F09E
:101200000081244B1A681A4B1B689A4206D3234864
:10121000FFF728FD012387F85F30F7E0144B1A68C9
:101220001C4B1B68D31AFB64B7F85030FA6C9A4217
:1012300038D2B7F85010174B1A680D4B1B68009343
:101240001346FA6C1648FFF70DFD012387F85F304F
:10125000DCE000BFB881010821170020E881010807
:1012600010820108288201084C820108608201086E
:101270002417002028170020848201080000002085
:10128000B082010830170020F082010810830108A5
:10129000308301082C17002054830108888301083B
:1012A000B48301085C4B1B68002B0CBF0123002397
:1012B00087F84B3097F84B30002B37D05748FFF763
:1012C000D1FC574B1B681C4607F10C0604F1300C8F
:1012D00035462346186859689A68DB680FC510348C
:1012E00010366445F4D1324623461B8813804D4B9B
:1012F0001B781A4613465B001344DB009B1A6033CD
:101300003B44503B01221A7007F10C03184600F0D1
:1013100067FA034687F84A3097F84A301946424838
:10132000FFF7A0FC97F84A30002B6CD13D4B1878A2
:101330007B68191D97F84B30B7F8502000F08CF8F7
:10134000034687F8493097F84930334A12681946FE
:101350003648FFF787FC97F84930002B13D12E4B06
:101360001A68334B1B689A4209D1324B04221A7017
:101370003148FFF777FC002387F85F3046E0002311
:1013800087F85F303DE02D48FFF76CFC39E07B6863
:101390007B657B6D5B7819467B6D1B791A46284807
:1013A000FFF760FC7B6D5B78002B2ED17B6D1B798A
:1013B000012B2AD12348FFF755FC00F0E7F803463C
:1013C00087F85F3097F85F3019461F48FFF74AFCEF
:1013D00097F85F30002B18D1164B00221A701B4B68
:1013E00001221A701A48FFF73DFC0EE01948FFF77A
:1013F00039FC012387F85F3008E000BF06E000BF3A
:1014000004E000BF02E000BF00E000BF97F85F30DB
:1014100018466437BD46F0BD2C170020FC83010838
:1014200000000020301700201884010848840108BB
:10143000241700202117002074840108AC840108BF
:10144000C8840108E88401080C850108E01B00201D
:101450002485010850850108B0B58CB000AF396013
:1014600011461A460346FB710B46BB801346BB71FF
:10147000FB79012B03D9012387F82F3073E002F0A9
:1014800081FF034687F82F3097F82F30002B67D164
:10149000BB79002B24D0FB7919463648FFF7E2FBD5
:1014A00000233B61FB79002B01D1072300E00923D6
:1014B000BB610223FB6102233B6207F10C0207F1CF
:1014C00010031146184603F0BFF8034687F82F3083
:1014D00097F82F30002B03D02748FFF7C3FB42E0DB
:1014E000FB79002B01D1254B00E0254B7B620023CB
:1014F000BB6224E0234B1A687B6AD1183A68BB6A46
:1015000013441B78DBB200221C46154622462B46AC
:10151000002002F0DDFE034687F82F3097F82F30C9
:10152000002B05D1174B1B680133164A136003E0EB
:101530001548FFF797FB06E0BB6A0133BB62BB8827
:10154000BA6A9A42D6D397F82F30002B0AD102F00C
:101550003BFF034687F82F3097F82F30002B02E02F
:1015600000BF00E000BF97F82F3018463037BD4667
:10157000B0BD00BF708501088C85010800000C0813
:10158000000014082C170020A0850108F0B593B0C6
:1015900002AF5B4B1B78002B01D15A4B00E05A4B3A
:1015A000BB63574B1B781946584B1A68584B1B683E
:1015B00000931346BA6B5748FFF754FBBB6B534A73
:1015C000126811461846FFF7FBFA7863504B1B6808
:1015D0007A6B9A4208D04E4B1B681A46796B4E487C
:1015E000FFF740FB012386E04C48FFF73BFB4C4BE9
:1015F0001B681C463E4604F1300C354623461868ED
:1016000059689A68DB680FC5103410366445F4D108
:10161000324623461B881380394B1B781A461346E3
:101620005B001344DB009B1A40333B44403B7A6B26
:10163000C3F80B20324B1B781A46344B19681346FB
:101640005B001344DB009B1A40333B44403BC3F830
:1016500007102B4B1B781A4613465B001344DB0024
:101660009B1A40333B443C3B00221A70244B1B78AE
:101670001A4613465B001344DB009B1A40333B447D
:101680003A3B01221A70002387F83F3016E01C4BCA
:101690001B7897F83F209A420BD097F83F201346CB
:1016A0005B001344DB009B1A40333B443A3B00226F
:1016B0001A7097F83F30013387F83F3097F83F3082
:1016C000012BE4D9174B3B603B46184600F088F8E5
:1016D000034687F8333097F8333019461248FFF73E
:1016E000C1FA97F83330002B04D01048FFF7BAFA4C
:1016F000012300E0002318464437BD46F0BD00BF7B
:101700003017002000000C080000140824170020E7
:1017100028170020048601084486010878860108FD
:1017200000000020EDFEEFBE88860108B4860108A7
:10173000F0B58FB000AFFF2387F83730264B1B681A
:101740001C463E1D04F1300C354623461868596886
:101750009A68DB680FC5103410366445F4D1324600
:1017600023461B881380002387F8363029E097F83A
:10177000362013465B001344DB009B1A38333B448E
:10178000303B1B78002B0CD197F8362013465B00BA
:101790001344DB009B1A38333B442F3B1B78002B50
:1017A0000AD197F8363087F8373097F8373019462E
:1017B0000A48FFF757FA08E097F83630013387F800
:1017C000363097F83630012BD1D997F83730184694
:1017D0003C37BD46F0BD00BF00000020D0860108A8
:1017E000B0B58CB000AF78607B68002B03D10123CB
:1017F00087F82F3062E002F0C5FD034687F82F30EE
:1018000097F82F30002B54D14FF0FF3002F0ECFD51
:1018100000233B610423BB610123FB6102233B6284
:10182000294B7322DA6007F10C0207F1100311460D
:10183000184602F009FF034687F82F3097F82F303B
:10184000002B38D17B687B620023BB621DE0BB6A42
:101850001E4919447A6ABB6A13441B78DBB2002222
:101860001C46154622462B46002002F031FD034659
:1018700087F82F3097F82F30002B03D01448FFF74C
:10188000F1F905E0BB6A0133BB62BB6A312BDED9DB
:101890004FF0FF3002F0A8FD97F82F30002B0CD14D
:1018A00002F092FD034687F82F3097F82F30002B77
:1018B00004E000BF02E000BF00E000BF97F82F3057
:1018C00018463037BD46B0BD003C0240000002085B
:1018D000B486010880B485B000AFF860B9607A6062
:1018E000FB68074A1A60BB68064A1A607B684FF4B7
:1018F00080721A6000BF1437BD465DF8047B7047E4
:1019000040170020E0170020B0B588B000AF0A4BA8
:101910003C1D1D460FCD0FC495E8070084E8070065
:101920003B1D0021184606F0F0FB0346034A1360F6
:1019300000BF2037BD46B0BDA08701083C1700207E
:1019400080B582B000AF786005F0F6FC00F054FB83
:10195000012006F032FCFBE780B58CB000AF07F148
:101960001C0300221A605A609A60DA601A613B4BCD
:101970001B6B3A4A43F004031363384B1B6B03F0B1
:101980000403BB61BB69354B1B6B344A43F08003D6
:101990001363324B1B6B03F080037B617B692F4B1E
:1019A0001B6B2E4A43F0010313632C4B1B6B03F09C
:1019B00001033B613B69294B1B6B284A43F002033F
:1019C0001363264B1B6B03F00203FB60FB68234B86
:1019D0001B6B224A43F008031363204B1B6B03F07D
:1019E0000803BB60BB681D4B1B6B1C4A43F04003E4
:1019F00013631A4B1B6B03F040037B607B68002270
:101A000044F28111164803F0C7F800224FF48061B8
:101A1000144803F0C1F844F28113FB6101233B62D7
:101A200000237B620023BB6207F11C0319460C48AC
:101A300002F006FF4FF48063FB6101233B62022347
:101A40007B620023BB6207F11C031946054802F0C4
:101A5000F7FE00BF3037BD4680BD00BF00380240F2
:101A600000040240000C024080B500AF00F089FF86
:101A700000F012F8FFF770FF00F0C4FDFFF72AF83E
:101A800000F04EFD4FF4C87000F0A8FFFFF73CFFD8
:101A900006F024FB00BFFDE780B594B000AF07F16E
:101AA0001C0334220021184614F0ECFD07F1080352
:101AB00000221A605A609A60DA601A6103F0A0F896
:101AC0002B4B1B6C2A4A43F080531364284B1B6C2E
:101AD00003F080537B607B68264B1B68254A43F4E8
:101AE00040431360234B1B6803F440433B603B6857
:101AF0000123FB614FF4A0233B6202237B634FF47D
:101B00008003BB630423FB63D8233B6402237B6411
:101B10000423BB640223FB6407F11C03184603F093
:101B2000CFF80346002B01D000F038F803F078F826
:101B30000346002B01D000F031F80F23BB600223D5
:101B4000FB6000233B614FF4A0537B614FF4805353
:101B5000BB6107F108030721184603F05FFB03464A
:101B6000002B01D000F01AF800BF5037BD4680BDF1
:101B7000003802400070004080B582B000AF78604D
:101B80007B681B68044A934201D100F007FF00BF45
:101B90000837BD4680BD00BF0020004080B400AFC4
:101BA00072B600BF00BFFDE780B582B000AF114B39
:101BB0001B6C104A43F0805313640E4B1B6C03F0F4
:101BC00080537B607B680B4B5B6C0A4A43F4804319
:101BD0005364084B5B6C03F480433B603B6800221A
:101BE0000F216FF0010000F0E1FF00BF0837BD4694
:101BF00080BD00BF0038024080B58EB000AF786075
:101C00000023FB620023BB62334B1B6C324A43F45C
:101C100080731364304B1B6C03F48073FB60FB68B0
:101C200007F1100207F114031146184603F01CFDDA
:101C30003B6AFB62FB6A002B03D103F0EDFC786387
:101C400004E003F0E9FC03465B007B637B6B234A03
:101C5000A2FB03239B0C013BBB62214B214A1A6070
:101C60001F4B40F2E732DA601D4ABB6A53601C4BDF
:101C700000221A611A4B00229A60194B00229A61C5
:101C8000174804F04BF9034687F8333097F83330A0
:101C9000002B1BD1124804F099F9034687F8333022
:101CA00097F83330002B11D12D2000F09BFF7B687B
:101CB0000F2B08D8002279682D2000F077FF0A4A00
:101CC0007B68136002E0012387F8333097F83330E4
:101CD00018463837BD4680BD0038024083DE1B43BE
:101CE000E41B0020002000400800002080B400AF6A
:101CF00000BFFDE780B400AF00BFFDE780B400AFD8
:101D000000BFFDE780B400AF00BFFDE780B400AFC7
:101D100000BFFDE780B400AF00BFBD465DF8047BA7
:101D20007047000080B500AF024804F0C7F900BF5B
:101D300080BD00BF3C1C002080B500AF024804F00D
:101D4000BDF900BF80BD00BFE41B002080B500AF1F
:101D5000024801F0D5FB00BF80BD00BF1067002026
:101D600080B400AF01231846BD465DF8047B704780
:101D700080B483B000AF78603960054B16221A60DA
:101D80004FF0FF3318460C37BD465DF8047B7047B3
:101D9000101D012080B582B000AF78604FF0FF3198
:101DA0007868FFF7E5FF00BFFDE780B586B000AFBC
:101DB000F860B9607A6000237B610AE0AFF30080CD
:101DC0000146BB685A1CBA60CAB21A707B690133FB
:101DD0007B617A697B689A42F0DB7B68184618372A
:101DE000BD4680BD80B586B000AFF860B9607A604E
:101DF00000237B6109E0BB685A1CBA601B78184657
:101E0000AFF300807B6901337B617A697B689A421A
:101E1000F1DB7B6818461837BD4680BD80B483B0BF
:101E200000AF78604FF0FF3318460C37BD465DF8C1
:101E3000047B704780B483B000AF786039603B6842
:101E40004FF400525A60002318460C37BD465DF827
:101E5000047B704780B483B000AF786001231846DC
:101E60000C37BD465DF8047B704780B485B000AF89
:101E7000F860B9607A60002318461437BD465DF8F3
:101E8000047B704780B487B000AF7860144A154B6C
:101E9000D31A7B617B693B61134B1B68002B02D11A
:101EA000114B124A1A60104B1A687B6813443A6946
:101EB0009A4205D20E4B0C221A604FF0FF3309E014
:101EC000094B1B68FB60084B1A687B681344064A81
:101ED0001360FB6818461C37BD465DF8047B7047ED
:101EE0000000082000040000301C0020201D0120FC
:101EF000101D012080B400AF064BD3F88830054A8E
:101F000043F47003C2F8883000BFBD465DF8047B1F
:101F1000704700BF00ED00E080B584B000AF78608E
:101F200039603B68FB60FB68002B1DD07B68002B91
:101F30001AD07868FEF784F903467B817B89002BF1
:101F400014D0FB68B3F864307A899A4210D87A8941
:101F500001237968F8680FF02BFC0346002B08D1A9
:101F6000F86810F00FFA04E000BF02E000BF00E0E4
:101F700000BF1037BD4680BD80B586B000AFF860A9
:101F8000B9607A607B687B617B69002B1AD0FB6843
:101F9000002B17D0BB68002B14D0BB687B827B69F9
:101FA000B3F864307A8A9A420ED87A8A0123F968A3
:101FB00078690FF0FDFB0346002B06D1786910F01D
:101FC000E1F902E000BF00E000BF1837BD4680BD68
:101FD00080B586B000AFF860B9607A607B687B61DD
:101FE0007B69002B04D07A69B968F868FFF7C4FFF1
:101FF00000BF1837BD4680BD80B584B000AF244B0C
:102000003B600CF091FCF860FB68002B1AD03B465B
:1020100040F2D1721946F8680BF0E0FB0346FB7200
:1020200097F90B30002B09D1FF21F8680BF08EFCDB
:10203000F8601849F8680CF0F7FC03E0F968012033
:1020400009F078FF0CF070FC78607B68002B1AD0E8
:102050003B464FF4FA62194678680BF0BFFB034623
:10206000FB7297F90B30002B09D1FF2178680BF038
:102070006DFC7860074978680CF0D6FC03E079685D
:10208000012009F057FF00BF1037BD4680BD00BFDB
:10209000C0A800199920000880B586B000AFF8608C
:1020A000B9601346FB710121B8680CF04BFA0C20A3
:1020B00009F026FD38613B69002B3ED03B690122C7
:1020C0001A703B69BA685A603B6900225A703B69D2
:1020D00000229A603969B8680CF02EFC1D49B86876
:1020E0000CF080FCBB68DB8AB3F5FA6F11D11A4A99
:1020F000BB681360184B1B6819461848FEF70AFEA8
:102100000021B8680CF02AFC1549B8680CF048FCAE
:1021100010E0BB68DB8A40F2D17293420AD1114AC7
:10212000BB6813601049B8680CF018FC0C49B8681B
:102130000CF036FC0023FB7505E03969B86800F047
:1021400047F9FF23FB7597F9173018461837BD4636
:1021500080BD00BFB5220008341C0020D11F00083C
:10216000D9220008381C00206D21000880B588B0F5
:1021700000AFF860B9607A60FB70FB68002B05D196
:10218000474B8E224749484814F0FEF8FB68BB6174
:102190007B68002B16D1BB6903221A70BB699B6850
:1021A000002B04D1B969B86800F012F907E03F4983
:1021B000B8680CF0F5FBB969B86800F0B5F8002311
:1021C000FB7763E097F90330002B0BD07B68002B83
:1021D00005D0BB6900229A6078680AF04FFDFB7851
:1021E000FB7753E0BB691B78012B03D0BB691B78DD
:1021F000022B10D1BB6902221A70BB697A689A60FF
:102200002A49B8680CF0CCFBB969B86800F020F92D
:102210000023FB773AE0BB691B78022B15D1BB6921
:102220009B68002B07D1BB697A689A60B969B86866
:1022300000F00EF906E0BB699B687B6179687869FC
:102240000AF040FE0023FB7720E0BB691B78032BDC
:102250000ED17B681B891946B8680BF08DFCBB69F1
:1022600000229A6078680AF009FD0023FB770DE0F0
:102270007B681B891946B8680BF07EFCBB6900229D
:102280009A6078680AF0FAFC0023FB77012108487D
:1022900002F09BFC97F91F3018462037BD4680BDE1
:1022A000BC870108D8870108E4870108D922000803
:1022B0000004024080B584B000AF78600B46FB702C
:1022C0007B68FB60FB68002B02D0F86809F07EFA9F
:1022D00000BF1037BD4680BD80B586B000AFF86046
:1022E000B9601346FB80FB687B617B6900225A70F2
:1022F0007B699B68002B08D00A49B8680CF050FB3A
:102300007969B86800F010F807E07B691B78032B47
:1023100003D17969B86800F05BF8002318461837D4
:10232000BD4680BDD922000880B586B000AF786078
:1023300039600023FB7536E03B689B683B613B6975
:1023400059683B695A89012378680FF031FA0346CE
:10235000FB7597F91730002B1DD13B695B89FB8119
:102360003B691A683B689A603B689B68002B04D005
:102370003B689B6818460AF027FD38690AF07EFC26
:1023800003467B737B7B002BF7D0FB89194678686B
:102390000BF0F2FB07E097F91730B3F1FF3F02D1E2
:1023A0003B683A699A6097F91730002B0BD13B686C
:1023B0009B68002B07D03B689B685A897B68B3F801
:1023C00064309A42B8D900BF1837BD4680BD0000BE
:1023D00080B582B000AF786039601B4B1B687A68AB
:1023E0009A4206D100210020FEF794FC164B0022F1
:1023F0001A60164B1B687A689A4202D1134B00226E
:102400001A60002178680CF097FA002178680CF0C7
:10241000C7FA002178680CF0A1FA002178680CF066
:10242000E1FA0022002178680CF016FB3B68002BD3
:1024300002D0386809F0CAF978680BF0D9F800BF03
:102440000837BD4680BD00BF341C0020381C00206A
:1024500080B5A6B002AF786039603B68002B57D0DA
:102460003B689B68002B53D07B68002B21D07B6896
:10247000DB8A40F2D17293421BD13B689B68C7F85C
:102480008C3011E0D7F88C305868D7F88C305B89E5
:1024900019467B680093204B204AFEF7C5F9D7F810
:1024A0008C301B68C7F88C30D7F88C30002BE9D102
:1024B0001EE03B689B681B897F2B28BF7F23A7F802
:1024C0008A303B689868B7F88A2007F10801002332
:1024D0000AF0DAFDB7F88A3090333B44002203F863
:1024E000882C07F108007B680B4A0C49FEF7D8F8E6
:1024F0003B689B681B89194678680BF03DFB3B687D
:102500009B6818460AF0BAFB3B6800229A6000E01C
:1025100000BF9037BD4680BD791F0008191F000815
:1025200080B588B000AF07F1100300221A605A602E
:102530009A60DA603B1D00221A605A609A601E4B56
:102540004FF080421A601C4B45F260425A601A4BB1
:1025500000229A60184B6422DA60174B00221A613D
:10256000154B80229A61144803F0D8FC0346002BD7
:1025700001D0FFF713FB4FF480533B6107F11003C9
:1025800019460D4803F0A2FE0346002B01D0FFF7C9
:1025900005FB00237B600023FB603B1D19460648BA
:1025A00004F0C6F80346002B01D0FFF7F7FA00BF8E
:1025B0002037BD4680BD00BF3C1C002080B584B0E4
:1025C00000AF78607B681B68B3F1804F13D10C4B70
:1025D0001B6C0B4A43F001031364094B1B6C03F0A3
:1025E0000103FB60FB68002205211C2000F0DEFADD
:1025F0001C2000F0F7FA00BF1037BD4680BD00BFB9
:102600000038024080B500AF144B154A1A60134BD6
:102610004FF4E1325A60114B00229A600F4B0022B6
:10262000DA600E4B00221A610C4B0C225A610B4BE4
:1026300000229A61094B0022DA61084B00221A62DB
:10264000064B00225A62054804F01EF90346002B8F
:1026500001D0FFF7A3FA00BF80BD00BF881C002097
:102660000048004080B5AEB000AF786007F1A40329
:1026700000221A605A609A60DA601A6107F1140346
:1026800090220021184613F0FDFF7B681B68224A48
:1026900093423CD14FF480737B6100233B6607F18A
:1026A0001403184603F012F80346002B01D0FFF77D
:1026B00075FA1A4B1B6C194A43F480231364174BA9
:1026C0001B6C03F480233B613B69144B1B6B134A67
:1026D00043F008031363114B1B6B03F00803FB600B
:1026E000FB684FF44073C7F8A4300223C7F8A83042
:1026F0000023C7F8AC300323C7F8B0300723C7F86E
:10270000B43007F1A4031946054802F099F800BF58
:10271000B837BD4680BD00BF0048004000380240C9
:10272000000C0240DFF834D0FFF7E4FB0C480D4901
:102730000D4A002302E0D458C4500433C4188C421C
:10274000F9D30A4A0A4C002301E013600432A24282
:10275000FBD314F05BF8FFF787F9704700000820FF
:102760000000002090000020CCB60108D00100201D
:10277000201D0120FEE780B483B000AF786039608F
:102780007B68002B0BD03B68DB68002B07D03B68D5
:102790009B68002B03D03B681B69002B02D14FF0D4
:1027A000FF3314E03B681A687B689A603B685A689C
:1027B0007B68DA603B68DA687B685A613B689A68D4
:1027C0007B681A613B681A697B689A610023184626
:1027D0000C37BD465DF8047B704780B586B000AF0E
:1027E00078600023FB6000237B6100233B617B68F2
:1027F0005B68002B39D17B689B68002B02D07B681B
:102800009B6898477B6820221A6000237B611CE04C
:102810007B685B6907F10C021221786998470346CF
:10282000002B03DA6FF004033B610BE0FB6803F05D
:102830001F037A699A4205D17B687A691A6000237E
:102840003B6105E07B6901337B617B691F2BDFD92D
:102850007B681B681F2B02D96FF002033B613B6949
:10286000002B02D17B6801225A603B691846183759
:10287000BD4680BD80B584B000AF78600023FB60AA
:102880007B685B697A68106807F10C020121984740
:102890000346002B02DA6FF004036EE07B685B698D
:1028A0007A68106807F10C02012198470346002B53
:1028B00002DA6FF0040360E0FB6803F00403002B0E
:1028C00001D1012359E07B685B697A68106807F1E0
:1028D0000C02002198470346002B02DA6FF0040334
:1028E0004BE0FB6803F48053002B1BD1FB6803F41F
:1028F0000053002B06D0FB6803F48073002B01D03B
:1029000002233AE0FB6803F40053002B01D00323B9
:1029100033E0FB6803F48073002B01D004232CE028
:1029200005232AE07B685B697A68106807F10C026E
:102930001F2198470346002B02DA6FF004031CE0C6
:10294000FB6803F48053002B01D1062315E0FB68DC
:1029500003F01C03182B01D102230EE0FB6803F0E7
:102960001C03082B01D1032307E0FB6803F01C03C1
:10297000142B01D1042300E0052318461037BD466F
:1029800080BD80B500AF032000F005F90F20FFF7F0
:1029900033F9FFF709F90023184680BD80B400AF72
:1029A000064B1B781A46064B1B681344044A1360F7
:1029B00000BFBD465DF8047B704700BF0C000020DF
:1029C000101D002080B400AF034B1B681846BD46A5
:1029D0005DF8047B704700BF101D002080B584B0F7
:1029E00000AF7860FFF7EEFFB8607B68FB60FB68C4
:1029F000B3F1FF3F05D00A4B1B781A46FB6813441E
:102A0000FB6000BFFFF7DEFF0246BB68D31AFA681F
:102A10009A42F7D800BF00BF1037BD4680BD00BF47
:102A20000C00002080B400AF034B1B681B0C184641
:102A3000BD465DF8047B7047002004E080B485B09B
:102A400000AF78607B6803F00703FB600B4BDB682B
:102A5000BB60BA684FF6FF031340BB60FB681A0205
:102A6000BB681A43064B1343BB60044ABB68D36080
:102A700000BF1437BD465DF8047B704700ED00E0F1
:102A80000000FA0580B400AF044BDB681B0A03F0BA
:102A900007031846BD465DF8047B704700ED00E073
:102AA00080B483B000AF0346FB7197F90730002B69
:102AB0000BDBFB7903F01F02074997F907305B092D
:102AC000012000FA02F241F8232000BF0C37BD4676
:102AD0005DF8047B704700BF00E100E080B483B084
:102AE00000AF03463960FB7197F90730002B0ADB12
:102AF0003B68DAB20C4997F907301201D2B20B44A5
:102B000083F800230AE03B68DAB20849FB7903F056
:102B10000F03043B1201D2B20B441A7600BF0C37EC
:102B2000BD465DF8047B704700E100E000ED00E089
:102B300080B489B000AFF860B9607A60FB6803F0D8
:102B40000703FB61FB69C3F10703042B28BF0423C0
:102B5000BB61FB690433062B02D9FB69033B00E030
:102B600000237B614FF0FF32BB6902FA03F3DA43C3
:102B7000BB681A407B699A404FF0FF317B6901FACC
:102B800003F3D9437B680B40134318462437BD46F3
:102B90005DF8047B704780B582B000AF78607868DC
:102BA000FFF74CFF00BF0837BD4680BD80B586B03B
:102BB00000AF0346B9607A60FB7300237B61FFF7C7
:102BC00061FF78617A68B9687869FFF7B1FF0246FA
:102BD00097F90F3011461846FFF780FF00BF1837EE
:102BE000BD4680BD80B582B000AF0346FB7197F94A
:102BF00007301846FFF754FF00BF0837BD4680BDB9
:102C000080B582B000AF78607B68002B01D10123D2
:102C100054E07B685B7FDBB2002B05D17B68002230
:102C20001A777868FDF778FF7B6802225A777B680D
:102C30001B79002B0CD17B681B68224A5A617B6888
:102C40001B689A687B681B6822F018029A600CE087
:102C50007B6899687B68DB681A46786800F034F80E
:102C60000346002B01D0012328E07B685B79002B11
:102C700005D17B681B684FF0FF321A6104E07B6866
:102C80001B687A6812691A617B681B689B6823F06D
:102C900060017B685A697B681B680A439A607B689D
:102CA0001B689B6823F080017B689A697B681B68BE
:102CB0000A439A607B6801225A7700231846083736
:102CC000BD4680BDB71DC10480B487B000AFF860B9
:102CD000B9607A600023FB751F233B61BB6803F07A
:102CE0000103002B02D10123FB7563E000BF3B69A8
:102CF0005A1E3A61002B09D03B6903F01F03BA68E2
:102D000022FA03F303F00103002BF0D07B68182BA9
:102D100046D801A252F823F0A72D0008A12D0008E3
:102D2000A12D0008A12D0008A12D0008A12D00084B
:102D3000A12D0008A12D0008952D0008A12D000847
:102D4000A12D0008A12D0008A12D0008A12D00082B
:102D5000A12D0008A12D0008892D0008A12D000833
:102D6000A12D0008A12D0008A12D0008A12D00080B
:102D7000A12D0008A12D00087D2D00083B69062B20
:102D800013D90123FB7510E03B69072B0FD90123F1
:102D9000FB750CE03B690F2B0BD90123FB7508E099
:102DA0000123FB7506E000BF04E000BF02E000BFA6
:102DB00000E000BFFB7D002B0DD1FB681B68BA68EB
:102DC0005A61FB681B689B6823F01801FB681B684D
:102DD0007A680A439A60FB7D18461C37BD465DF849
:102DE000047B704780B584B000AF78607B68002BAF
:102DF00001D1012386E07B68D3F88430002B06D113
:102E00007B682022C3F88420786804F0EFFE3F4BF3
:102E10005B6C3E4A43F4804353643C4B5B6C03F46D
:102E20008043BB60BB683A4B5B68394A23F40003BC
:102E30005360374B5A687B689B68354913434B6036
:102E4000334B5B687B681B6803F580531B687A68AB
:102E5000126843F0010302F580521360FFF7B2FDE0
:102E6000F86011E0FFF7AEFD0246FB68D31AB3F538
:102E7000FA7F09D97B680422C3F888207B68E022A6
:102E8000C3F8842001233DE07B681B6803F5805371
:102E90001B6803F00103002BE4D1786800F05CFFAD
:102EA000786801F007F8786801F05DF87B685B6886
:102EB0001A460021786800F0C5FF7B681B68DA6B52
:102EC0007B681B6842F40272DA637B681B68D3F884
:102ED0000C117B681A680F4B0B43C2F80C317B68EE
:102EE0001B68D3F810217B681B6842F40312C3F8F7
:102EF00010217B680022C3F888207B681022C3F869
:102F00008420002318461037BD4680BD003802409B
:102F1000003801406000020080B584B000AF7860E6
:102F20007B68D3F88430102B5FD17B682022C3F8F4
:102F300084207B6801229A657B680422DA667868BF
:102F400000F0F6F97B681B681B68FB600120FFF747
:102F500045FD7B681B68FA681A607B681B6803F58F
:102F600080539B697A68126843F4005302F58052DB
:102F700093617B681B6803F580539B697A681268CC
:102F800043F0020302F580529361786800F080FDFF
:102F90007B681B681A687B681B6842F008021A602D
:102FA0007B681B681B68FB600120FFF717FD7B68CF
:102FB0001B68FA681A607B681B681A687B681B6864
:102FC00042F004021A607B681B6803F58053D969DC
:102FD0007B681A68074B0B4302F58052D3617B680C
:102FE0004022C3F88420002300E001231846103754
:102FF000BD4680BDC1A0010080B586B000AF78603D
:103000007B68D3F88430402B6ED17B682022C3F8D4
:1030100084207B681B6803F58053D9697B681A6834
:10302000344B0B4002F58052D3617B681B6803F57B
:1030300080539B697A68126823F4005302F580522A
:1030400093617B681B6803F580539B697A681268FB
:1030500023F0020302F5805293617B681B681A68B3
:103060007B681B6822F004021A607B681B681B687F
:103070003B610120FFF7B2FC7B681B683A691A606C
:10308000786800F005FD7B681B681A687B681B6820
:1030900022F008021A607B681B681B683B610120F4
:1030A000FFF79CFC7B681B683A691A6000237B6110
:1030B0000EE07B687A69123253F82230FB60FB68BD
:1030C0005B6843F00042FB685A607B6901337B61B7
:1030D0007B69032BEDD97B6800229A657B681022FF
:1030E000C3F88420002300E0012318461837BD46AA
:1030F00080BD00BF3E5FFEFF80B582B000AF78604C
:1031000039603B68002B09D17B68D3F8883043F0E5
:1031100001027B68C3F88820012345E07B68D3F86F
:103120008430402B3FD13B685A6B7B68DA630122C5
:103130003968786800F086FF0346002B09D07B6869
:10314000D3F8883043F002027B68C3F8882001235B
:103150002AE0BFF34F8F00BF7B689B6A5A1C7B68D5
:103160009A627B689B6A032B04D97B689B6A1A1F4F
:103170007B689A627B681B6803F580535B6903F088
:103180000403002B0DD07B681B6803F580531A469F
:10319000042353617B681B6803F580531A460023A0
:1031A0005360002300E0012318460837BD4680BD68
:1031B00080B588B000AF7860396000237B61002360
:1031C000FB743B68002B09D17B68D3F8883043F04F
:1031D00001027B68C3F888200123A4E07B68D3F850
:1031E0008430402B01D001239DE07B68DB6DFB61C7
:1031F0007B68FA69123253F82230BB617B68DB6E60
:10320000C3F10403FB6066E0BB691B6803F48073D1
:10321000002B07D0BB69DA697B689A67BB699A693A
:103220007B685A67BB691B6803F40073002B03D1EA
:103230007B68DB6F002B3CD0BB691B6803F4007319
:10324000002B05D07B6800221A667B6800225A6634
:10325000BB691B681B0CC3F30D03BB60BB691B6818
:1032600003F48073002B05D0BB691A687B681A676A
:103270000123FB74BB699A68BB691A627B6803F11E
:103280007C007B6803F18001BB691B6A1A46BB683E
:103290009BB204F077FE7B681B6E5A1C7B681A6633
:1032A0007B685A6EBB681A447B685A66BB69002209
:1032B0001A62FB690133FB61FB69032B02D9FB69CD
:1032C000043BFB617B68FA69123253F82230BB6120
:1032D0007B6901337B61BB691B68002B06DB7A6964
:1032E000FB689A4202D2FB7C002B8DD07B68DA6EA1
:1032F0007B691A447B68DA667B68DB6E002B02D040
:10330000786800F015F87B68FA69DA65FB7C012BB8
:1033100008D17B68DA6F3B681A607B680022DA6745
:10332000002300E0012318462037BD4680BD000081
:1033300080B588B000AF78600023BB600123FB74C8
:103340007B689B6EFB617B68FA69123253F822300E
:103350007B617B68DB6EBB6142E07B691B6A002B93
:1033600012D107F10803184604F0DCFDBB68002BFE
:1033700002D10023FB7407E0BB681A467B691A621E
:10338000BB681A467B699A60FB7C002B28D07B685F
:103390009B6D002B06D17B685A69264B13437A69D3
:1033A000536005E07B685B6943F480427B695A6047
:1033B0007B691B6843F000427B691A60FB6901333B
:1033C000FB61FB69032B02D9FB69043BFB617B6852
:1033D000FA69123253F822307B61BB69013BBB6151
:1033E000BB69002B02D0FB7C002BB6D17B68DB6E67
:1033F000BA699A421AD0FB69033303F00303FB60F6
:10340000BFF35F8F00BF7B681969FA6813469B00A2
:103410001344DB00CA187B681B6803F580539A606D
:103420007B68FA699A667B68BA69DA6600BF2037FA
:10343000BD4680BD0040008080B586B000AF78609A
:103440007B681833BB60BB689B6A7B61BB68DB6AC7
:103450003B610123FB7347E00123BB737B69013BA5
:103460007B61BA683B6904339B0013445B68002BA3
:103470000AD13B6901333B613B69032B02D93B69AC
:10348000043B3B610023BB73BB7B002B2CD07B68D0
:10349000D9683A6913469B001344DB000B441B6850
:1034A000002B1FDBBA683B6904339B0013445B6845
:1034B000184604F0A9FDBA683B6904339B00134425
:1034C00000225A603B6901333B613B69032B02D9FF
:1034D0003B69043B3B61BB687A699A62BB683A69A5
:1034E000DA6201E00023FB737B69002B02D0FB7BD7
:1034F000002BB1D1002318461837BD4680BD00000F
:1035000080B586B000AF78607B681B689B6B7B6181
:103510007B681B6803F580535B693B617B681B68B4
:1035200003F58053DB69FB604B4B5B69BB603B6918
:1035300003F04003002B0ED0FB6803F04003002B88
:1035400009D07B681B6803F580531A46434B5361CF
:10355000786804F05FF83B6903F00103002B0FD09B
:10356000FB6803F00103002B0AD07B681B6803F59E
:1035700080531A464FF001135361786804F05AF8EB
:103580003B6903F40043002B42D0FB6803F4004383
:10359000002B3DD07B68D3F8883043F008027B686D
:1035A000C3F888203B6903F40053002B1AD07B68D2
:1035B0001B6803F580535A69294B13407A68C2F897
:1035C0008C307B681B6803F58053DB697A6812686E
:1035D00023F4C03302F58052D3617B68E022C3F844
:1035E000842012E07B681B6803F580535A6948F217
:1035F000806313407A68C2F88C307B681B6803F5DF
:1036000080531A4648F280635361786804F022F8C8
:103610007B6903F00803002B0ED07B681B68DB6A14
:1036200003F060027B68C3F89420786800F01AF811
:103630007B680022C3F89420BB6803F40023002BAE
:1036400006D0054B4FF400225A61786800F014F858
:1036500000BF1837BD4680BD003C0140400001005E
:1036600000207E0080B483B000AF786000BF0C37CC
:10367000BD465DF8047B704780B483B000AF7860CE
:1036800000BF0C37BD465DF8047B704780B586B03F
:1036900000AFF860B9607A603B60FB681B681B692B
:1036A0007B617B6903F01C037B61BB68DB029BB21F
:1036B0007A6913437B617B689B0103F4F8637A6941
:1036C00013437B617B6923F002037B617B6943F0D9
:1036D00001037B61FB681B687A691A61FFF772F965
:1036E00038610DE0FFF76EF902463B69D31AB3F576
:1036F000803F01D3012310E0FB681B681B697B61DD
:103700007B6903F00103002BECD1FB681B685B694C
:103710009BB21A463B681A60002318461837BD460C
:1037200080BD80B586B000AFF860B9607A603B605C
:10373000FB681B681B697B617B6903F01C037B6171
:10374000BB68DB029BB27A6913437B617B689B0198
:1037500003F4F8637A6913437B617B6943F00203E6
:103760007B617B6943F001037B613B689AB2FB6834
:103770001B685A61FB681B687A691A61FFF722F9B6
:1037800038610DE0FFF71EF902463B69D31AB3F525
:10379000803F01D3012309E0FB681B681B697B6143
:1037A0007B6903F00103002BECD100231846183786
:1037B000BD4680BD80B483B000AF786039603B689F
:1037C000002B01D10123E6E07B681B681B6803F036
:1037D0001003002B14BF01230023DBB21A463B6801
:1037E00083F828207B681B681B6803F060023B6835
:1037F0005A627B681B681B6803F40073002B0CBFC4
:1038000001230023DBB21A463B6883F820207B6843
:103810001B681B6803F48033002B14BF01230023B3
:10382000DBB21A463B68DA777B681B681B6803F4D7
:103830000053002B0CBF01230023DBB21A463B6868
:103840009A777B681B681B6803F48053002B14BFB6
:1038500001230023DBB21A463B681A777B681B689A
:103860001B6803F400623B689A617B681B681B68F5
:1038700003F480423B685A617B681B681B6803F451
:103880008003002B0CBF01230023DBB21A463B68E8
:103890005A747B681B681B6803F40003002B0CBF81
:1038A00001230023DBB21A463B681A747B681B684D
:1038B0001B6803F08003002B14BF01230023DBB23D
:1038C0001A463B68DA737B681B681B6803F4602246
:1038D0003B689A607B681B681B6803F48063002B5D
:1038E00014BF01230023DBB21A463B681A717B68C0
:1038F0001B681B6803F00073002B14BF0123002317
:10390000DBB21A463B689A737B681B689B6903F0BD
:103910000203002B14BF01230023DBB21A463B68CD
:1039200083F854207B681B689B6903F08003002B9D
:103930000CBF01230023DBB21A463B6883F84C20FE
:103940007B681B689B6903F030023B681A657B68E3
:103950001B689B691B0C9AB23B689A647B681B6866
:103960009B6903F00403002B14BF01230023DBB287
:103970001A463B6883F856207B681B689B6903F0F6
:103980000803002B14BF01230023DBB21A463B6857
:1039900083F85520002318460C37BD465DF8047B9C
:1039A000704780B582B000AF786039603B68002B0B
:1039B00001D101230BE07B68D3F88430102B05D1B3
:1039C0003968786800F08AF8002300E0012318467F
:1039D0000837BD4680BD000080B584B000AF786078
:1039E0007B681B681B69FB60FB6823F01C03FB60A2
:1039F00001F006FEB860BB68144A934204D8FB6825
:103A000043F00803FB6019E0BB68114A934204D2FB
:103A1000FB6843F00C03FB6010E0BB680D4A934267
:103A20000CD9BB680C4A934204D8FB6843F00403EA
:103A3000FB6003E0FB6843F01003FB607B681B68DE
:103A4000FA681A6100BF1037BD4680BDBF0E16026E
:103A500000879303FFE0F5057FD1F00880B483B0C1
:103A600000AF78607B68D3F8883018460C37BD46C5
:103A70005DF8047B704780B483B000AF78607B68EA
:103A8000D3F88C3018460C37BD465DF8047B704780
:103A900080B584B000AF78600023FB607B681B6852
:103AA00003F580539B697A68126843F4801302F52A
:103AB000805293617B681B6803F580539B69FB60B0
:103AC0000120FEF78BFF7B681A68FB6802F58052C5
:103AD000936100BF1037BD4680BD000080B584B043
:103AE00000AF786039607B681B681B68FB60FA6810
:103AF000534B1340FB603B689B7B5B063A68127C30
:103B0000002A02D14FF4000200E0002213433A6879
:103B1000527C002A02D14FF4800200E000221A43B6
:103B20003B689B681A433B68DB7F1B041A433B6876
:103B30005B6913433A68927F002A02D14FF4005226
:103B400000E000221A433B681B7F1B031A433B68BB
:103B50009B691A433B681B799B0213433A6892F8AE
:103B60002020002A02D14FF4007200E000221A4304
:103B70003B68DB7BDB011A433B685B6A1A433B68AB
:103B800093F828301B011343FA681343FB607B68EA
:103B90001B68FA681A607B681B681B68FB60012061
:103BA000FEF71CFF7B681B68FA681A607B681B685D
:103BB0009B69FB60FA684FF641731340FB603B68FA
:103BC0009B6C1B043A6892F84C20002A01D1802299
:103BD00000E000221A433B681B6D13433A6892F8D9
:103BE0005520012A01D1082200E0002213433A683F
:103BF00092F85620012A01D1042200E0002213434A
:103C00003A6892F85420012A01D1022200E00022F1
:103C10001343FA681343FB607B681B68FA689A6178
:103C20007B681B689B69FB600120FEF7D7FE7B6801
:103C30001B68FA689A6100BF1037BD4680BD00BF9F
:103C40000F8120FD80B584B000AF786039607B685B
:103C50001B6803F580539B69FB60FA683D4B13407A
:103C6000FB603B681B7B002B02D14FF0806200E0C1
:103C700000223B685B7B5B0613433A68527F002A55
:103C800002D14FF4801200E000221A433B689B7B74
:103C90005B051A433B685B691A433B681B7FDB018A
:103CA0001A433B689B7F9B011A433B681B6A1A437C
:103CB0003B6893F824309B001343FA681343FB607E
:103CC0007B681B6803F580531A46FB6893617B6829
:103CD0001B6803F580539B69FB600120FEF77EFEA5
:103CE0007B681B6803F580531A46FB6893613B6849
:103CF0001B795A063B689B681A433B689B691A43C9
:103D00003B681B691A433B6893F82530DB011A4373
:103D10003B689B6A9B001A433B681B6813437A68A5
:103D2000126843F4000302F5805213607B681B683D
:103D300003F580531B68FB600120FEF74FFE7B6894
:103D40001B6803F580531A46FB68136000BF1037E9
:103D5000BD4680BD233FDEF880B5A6B000AF7860D9
:103D6000012387F84430012387F845300023FB63A3
:103D7000002387F85330012387F85230002387F857
:103D80005030012387F84230012387F83830002370
:103D900087F85430002387F843300023BB650023A5
:103DA00087F85C300023FB67002387F8803000230E
:103DB000C7F88430002387F88A30002387F88830DA
:103DC0004FF48043BB644FF40063FB64002387F827
:103DD000893007F1340319467868FFF77FFE012325
:103DE0003B7501237B75012387F825300123BB75C3
:103DF0000023FB61002387F82430002387F8263056
:103E00000023BB62012387F82C3001233B734FF45E
:103E100080333B614FF480033B624FF40053BB613E
:103E2000012387F82D3000233B630023BB6007F19B
:103E3000080319467868FFF705FF00BF9837BD46AD
:103E400080BD000080B487B000AFF860B9607A60D0
:103E50007B6805331B781B027A680432127813439F
:103E60007B61BA68114B13441A467B6913607B6807
:103E700003331B781A067B6802331B781B041A4332
:103E80007B6801331B781B0213437A681278134353
:103E90007B61BA68064B13441A467B69136000BF06
:103EA0001C37BD465DF8047B704700BF4080024070
:103EB0004480024080B485B000AF78600023FB608E
:103EC0003EE07B68D968FA6813469B001344DB0028
:103ED0000B44BB60BB6800221A60BB6800225A60BA
:103EE000BB6800229A60BB680022DA60B9687B6810
:103EF000FA68063243F82210BB681B6843F480124C
:103F0000BB681A60FB68022B0CD87B68D968FB6819
:103F10005A1C13469B001344DB000B441A46BB6833
:103F2000DA6004E07B68DB681A46BB68DA60BB686D
:103F30001B6843F44002BB681A60FB680133FB60F6
:103F4000FB68032BBDD97B6800229A627B68DA6824
:103F50007B681B6803F580531A6100BF1437BD46A8
:103F60005DF8047B704780B485B000AF78600023B3
:103F7000FB6048E07B681969FA6813469B001344AC
:103F8000DB000B44BB60BB6800221A60BB680022E8
:103F90005A60BB6800229A60BB680022DA60BB6886
:103FA00000221A62BB6800225A62BB684FF00042CE
:103FB0001A607B685B6943F48042BB685A60BB68E7
:103FC0005B6823F00042BB685A60B9687B68FA6896
:103FD000123243F82210FB68022B0CD87B68196957
:103FE000FB685A1C13469B001344DB000B441A4623
:103FF000BB68DA6004E07B681B691A46BB68DA605C
:10400000FB680133FB60FB68032BB3D97B6800229C
:10401000DA657B6800221A667B6800229A667B68F4
:104020000022DA667B6800229A657B681A697B68E1
:104030001B6803F58053DA6000BF1437BD465DF896
:10404000047B704780B491B000AFF860B9607A60CB
:10405000FB6818337B627B6A1B69FB637B6A1B69A5
:104060003B6200237B637B6AFA6B53F822303B632D
:10407000BB689B68FB620023BB623B6B1B6803F061
:104080000043B3F1004F07D07A6AFB6B04339B0007
:1040900013445B68002B01D0022311E17B6B0133D9
:1040A0007B63FB6A1B681A463B6B9A603B6B5A68E2
:1040B000864B1340FA6A52681A433B6B5A60BB68DE
:1040C0001B6803F00103002B08D03B6B1B6823F433
:1040D0004002BB685B691A433B6B1A60BB681B6894
:1040E00003F02003002B08D03B6B1B6823F04062D9
:1040F000BB681B691A433B6B1A60BB681B6803F003
:104100000403002B05D03B6B1B6843F080023B6B24
:104110001A603B6B1B6843F080523B6B1A6082E075
:104120003B6B1B6823F000523B6B1A607B68002BD3
:1041300006D03B6B1B6843F080423B6B1A6005E086
:104140003B6B1B6823F080423B6B1A60FB6B0133B7
:10415000FB63FB6B032B02D9FB6B043BFB637B6AAA
:10416000FA6B53F822303B633B6B1B6803F0004350
:10417000B3F1004F07D07A6AFB6B04339B00134402
:104180005B68002B29D03B6AFB637B6AFA6B53F8B0
:1041900022303B630023BB6319E0BFF35F8F00BF96
:1041A0003B6B1B6823F000423B6B1A60FB6B0133D7
:1041B000FB63FB6B032B02D9FB6B043BFB637B6A4A
:1041C000FA6B53F822303B63BB6B0133BB63BA6BB2
:1041D0007B6B9A42E1D3022372E03B6B1B6823F0B6
:1041E00080523B6B1A607B6B01337B63FB6A9B687D
:1041F000FB62FB6A1B681A463B6B9A603B6B5A6812
:10420000324B1340FA6A52681A433B6B5A60BB6ADE
:104210000133BB62BFF35F8F00BF3B6B1B6843F092
:1042200000423B6B1A60FB6A9B68002B7FF478AFFF
:104230007B68002B06D03B6B1B6843F080423B6BD6
:104240001A6005E03B6B1B6823F080423B6B1A60F1
:104250003B6B1B6843F000523B6B1A607B6A3A6A07
:1042600053F822303B63BFF35F8F00BF3B6B1B688B
:1042700043F000423B6B1A607B6A5A6A796AFB6BB7
:1042800004339B000B445A607B6AFA6B1A61EFF3AC
:1042900010833B613B69FB6101237B617B6983F395
:1042A000108800BF7B6A9A6ABB6A13445A1C7B6AF7
:1042B0009A62FB69BB61BB6983F3108800BF00236E
:1042C00018464437BD465DF8047B704700E0FFFFA9
:1042D00080B586B000AFF860B960C7E90023274B0E
:1042E0001B7D012B01D1022343E0244B01221A75CF
:1042F0004CF2503000F078F80346FB75FB7D002B44
:1043000033D1FB68032B23D801A252F823F000BF5E
:10431000214300082D4300083943000845430008A5
:104320003B781946B86800F021F912E03B8819463D
:10433000B86800F0F5F80CE03B681946B86800F082
:10434000C9F806E0D7E90023B86800F08DF800E06E
:1043500000BF4CF2503000F047F80346FB75084BA5
:104360001B69074A23F001031361044B00221A75ED
:10437000FB7D18461837BD4680BD00BF141D0020C8
:10438000003C024080B483B000AF0023FB710B4BB4
:104390001B69002B0BDA094B094A5A60074B094A83
:1043A0005A60064B1B69002B01DA0123FB71FB7974
:1043B00018460C37BD465DF8047B7047003C024050
:1043C00023016745AB89EFCD80B400AF054B1B6976
:1043D000044A43F00043136100231846BD465DF8CC
:1043E000047B7047003C024080B584B000AF786029
:1043F0000023FB601A4B00229A61FEF7E3FAF86093
:1044000010E07B68B3F1FF3F0CD07B68002B07D036
:10441000FEF7D8FA0246FB68D31A7A689A4201D2AC
:10442000032319E00F4BDB6803F48033002BE8D142
:104430000C4BDB6803F0F203002B03D000F0BAF85A
:10444000012309E0074BDB6803F00103002B02D0D6
:10445000044B0122DA60002318461037BD4680BDA8
:10446000141D0020003C024080B485B000AFF8600D
:10447000C7E90023164B1B69154A23F440731361E7
:10448000134B1B69124A43F440731361104B1B69B1
:104490000F4A43F001031361FB683A681A60BFF3E7
:1044A0006F8F00BFD7E900014FF000024FF000030B
:1044B0000A000023F968043113460B60BFF34F8FE5
:1044C00000BF00BF1437BD465DF8047B704700BFD6
:1044D000003C024080B483B000AF786039600F4B7D
:1044E0001B690E4A23F4407313610C4B1B690B4A82
:1044F00043F400731361094B1B69084A43F001033D
:1045000013617B683A681A60BFF34F8F00BF00BF2A
:104510000C37BD465DF8047B704700BF003C02408D
:1045200080B483B000AF78600B467B800E4B1B6974
:104530000D4A23F4407313610B4B1B690A4A43F481
:1045400080731361084B1B69074A43F00103136131
:104550007B687A881A80BFF34F8F00BF00BF0C378B
:10456000BD465DF8047B7047003C024080B483B0D8
:1045700000AF78600B46FB700D4B1B690C4A23F4AF
:10458000407313610A4B0A4A1B691361084B1B698C
:10459000074A43F0010313617B68FA781A70BFF38E
:1045A0004F8F00BF00BF0C37BD465DF8047B7047DE
:1045B000003C024080B400AF214BDB6803F00203F3
:1045C000002B05D01F4B9B6943F020031D4A9361CC
:1045D0001B4BDB6803F01003002B05D0194B9B69C4
:1045E00043F01003174A9361154BDB6803F0200377
:1045F000002B05D0134B9B6943F00803114A9361CC
:104600000F4BDB6803F04003002B05D00D4B9B697B
:1046100043F004030B4A9361094BDB6803F080030A
:10462000002B05D0074B9B6943F00203054A9361B9
:10463000034BF222DA6000BFBD465DF8047B704791
:10464000003C0240141D002080B584B000AF7860AB
:1046500039600023BB60304B1B7D012B01D102234D
:1046600056E02D4B01221A754CF25030FFF7BCFE7C
:104670000346FB73FB7B002B46D13B684FF0FF32B8
:104680001A607B681B68012B15D17B681B69DAB245
:104690007B685B681946104600F044F84CF25030D5
:1046A000FFF7A2FE0346FB731C4B1A691B491C4B08
:1046B00013400B6128E07B689B68BB601CE07B6853
:1046C0001B69DBB21946B86800F068F84CF250304C
:1046D000FFF78AFE0346FB73104B1B690F4A23F05A
:1046E000FA031361FB7B002B03D03B68BA681A60A6
:1046F0000AE0BB680133BB607B68DA687B689B6853
:104700001344BA689A42DAD3034B00221A75FB7B32
:1047100018461037BD4680BD141D0020003C0240E5
:10472000FB7FFFFF80B483B000AF03463960FB71AD
:10473000194B1B69184A23F4407313613B68032B20
:1047400007D1154B1A69144948F2040313430B614E
:104750000FE03B68022B06D10F4B1B690E4A43F456
:104760000043136105E00C4B1B690B4A43F0040343
:104770001361094B1A69FB791B021343064A43F480
:1047800080331361BFF34F8F00BF00BF0C37BD46AE
:104790005DF8047B704700BF003C024080B485B0E8
:1047A00000AF78600B46FB700023FB60FB78002BAA
:1047B00002D10023FB6010E0FB78012B03D14FF402
:1047C0008073FB6009E0FB78022B03D14FF4007388
:1047D000FB6002E04FF44073FB607B680B2B02D957
:1047E0007B6804337B60154B1B69144A23F44073C8
:1047F0001361124B1A691149FB6813430B610F4B8C
:104800001B690E4A23F0F80313610C4B1A697B688D
:10481000DB001343094A43F002031361074B1B6992
:10482000064A43F480331361BFF34F8F00BF00BFCC
:104830001437BD465DF8047B704700BF003C024062
:1048400080B489B000AF786039600023FB61002339
:104850007B6100233B610023BB610023FB6175E1A9
:104860000122FB6902FA03F37B613B681B687A69EA
:1048700013403B613A697B699A4240F064813B682E
:104880005B6803F00303012B05D03B685B6803F012
:104890000303022B30D17B689B68BB61FB695B0023
:1048A000032202FA03F3DB43BA691340BB613B689E
:1048B000DA68FB695B0002FA03F3BA691343BB6170
:1048C0007B68BA699A607B685B68BB610122FB699F
:1048D00002FA03F3DB43BA691340BB613B685B68D0
:1048E0001B0903F00102FB6902FA03F3BA691343DF
:1048F000BB617B68BA695A603B685B6803F003037D
:10490000032B17D07B68DB68BB61FB695B0003226C
:1049100002FA03F3DB43BA691340BB613B689A6850
:10492000FB695B0002FA03F3BA691343BB617B685E
:10493000BA69DA603B685B6803F00303022B23D19A
:10494000FB69DA087B68083253F82230BB61FB69E7
:1049500003F007039B000F2202FA03F3DB43BA695B
:104960001340BB613B681A69FB6903F007039B00B6
:1049700002FA03F3BA691343BB61FB69DA087B6887
:104980000832B96943F822107B681B68BB61FB6978
:104990005B00032202FA03F3DB43BA691340BB61F5
:1049A0003B685B6803F00302FB695B0002FA03F3F8
:1049B000BA691343BB617B68BA691A603B685B687C
:1049C00003F44033002B00F0BE80664B5B6C654AFD
:1049D00043F480435364634B5B6C03F48043FB609C
:1049E000FB68614AFB699B08023352F82330BB61C4
:1049F000FB6903F003039B000F2202FA03F3DB437E
:104A0000BA691340BB617B68584A934237D07B68D0
:104A1000574A934231D07B68564A93422BD07B68E9
:104A2000554A934225D07B68544A93421FD07B68F5
:104A3000534A934219D07B68524A934213D07B6801
:104A4000514A93420DD07B68504A934207D07B680D
:104A50004F4A934201D1092312E00A2310E00823B0
:104A60000EE007230CE006230AE0052308E00423F8
:104A700006E0032304E0022302E0012300E0002318
:104A8000FA6902F0030292009340BA691343BB61D2
:104A90003549FB699B080233BA6941F823203D4B35
:104AA0009B68BB613B69DB43BA691340BB613B68F0
:104AB0005B6803F48013002B03D0BA693B6913438E
:104AC000BB61344ABB699360324BDB68BB613B69B5
:104AD000DB43BA691340BB613B685B6803F40013B6
:104AE000002B03D0BA693B691343BB61294ABB69F8
:104AF000D360284B5B68BB613B69DB43BA691340F9
:104B0000BB613B685B6803F40033002B03D0BA69D8
:104B10003B691343BB611F4ABB6953601D4B1B6854
:104B2000BB613B69DB43BA691340BB613B685B68AF
:104B300003F48033002B03D0BA693B691343BB6194
:104B4000144ABB691360FB690133FB61FB690F2BDE
:104B50007FF686AE00BF00BF2437BD465DF8047BFC
:104B6000704700BF0038024000380140000002409A
:104B70000004024000080240000C02400010024005
:104B80000014024000180240001C024000200240B5
:104B900000240240003C014080B483B000AF786044
:104BA0000B467B8013467B707B78002B03D07A8882
:104BB0007B689A6103E07B881A047B689A6100BF76
:104BC0000C37BD465DF8047B704780B485B000AFFC
:104BD00078600B467B807B685B69FB607A88FB684A
:104BE00013401A04FB68D9437B880B401A437B6847
:104BF0009A6100BF1437BD465DF8047B7047000022
:104C000080B400AF054B1B68044A43F48073136003
:104C100000BFBD465DF8047B704700BF00700040D8
:104C200080B582B000AF00237B60234B1B6C224A0F
:104C300043F080531364204B1B6C03F080533B60A4
:104C40003B681E4B1B681D4A43F480331360FDF71D
:104C5000B9FE786009E0FDF7B5FE02467B68D31A1D
:104C6000B3F57A7F01D9032322E0144B5B6803F488
:104C70008033B3F5803FEED1104B1B680F4A43F4ED
:104C800000331360FDF79EFE786009E0FDF79AFEA1
:104C900002467B68D31AB3F57A7F01D9032307E074
:104CA000064B5B6803F40033B3F5003FEED10023FD
:104CB00018460837BD4680BD0038024000700040ED
:104CC00080B586B000AF78600023FB757B68002B51
:104CD00001D101239BE27B681B6803F00103002BD9
:104CE00000F08780964B9B6803F00C03042B0CD0DC
:104CF000934B9B6803F00C03082B12D1904B5B681D
:104D000003F48003B3F5800F0BD18D4B1B6803F4C4
:104D10000033002B6CD07B685B68002B68D10123CB
:104D200075E27B685B68B3F5803F06D1844B1B68F6
:104D3000834A43F4803313602EE07B685B68002B6A
:104D40000CD17F4B1B687E4A23F4803313607C4B6D
:104D50001B687B4A23F4802313601DE07B685B683B
:104D6000B3F5A02F0CD1764B1B68754A43F4802312
:104D70001360734B1B68724A43F4803313600BE07B
:104D80006F4B1B686E4A23F4803313606C4B1B68B7
:104D90006B4A23F4802313607B685B68002B13D07D
:104DA000FDF710FE386108E0FDF70CFE02463B6996
:104DB000D31A642B01D9032329E2614B1B6803F446
:104DC0000033002BF0D014E0FDF7FCFD386108E063
:104DD000FDF7F8FD02463B69D31A642B01D9032382
:104DE00015E2574B1B6803F40033002BF0D100E0B1
:104DF00000BF7B681B6803F00203002B69D0504B97
:104E00009B6803F00C03002B0BD04D4B9B6803F009
:104E10000C03082B1CD14A4B5B6803F48003002B66
:104E200016D1474B1B6803F00203002B05D07B68AB
:104E3000DB68012B01D00123E9E1414B1B6823F022
:104E4000F8027B681B69DB003D4913430B6040E0BF
:104E50007B68DB68002B23D0394B1B68384A43F052
:104E600001031360FDF7AEFD386108E0FDF7AAFD10
:104E700002463B69D31A022B01D90323C7E1304B09
:104E80001B6803F00203002BF0D02D4B1B6823F0AE
:104E9000F8027B681B69DB00294913430B6018E0AB
:104EA000274B1B68264A23F001031360FDF78AFD98
:104EB000386108E0FDF786FD02463B69D31A022BF4
:104EC00001D90323A3E11E4B1B6803F00203002B4F
:104ED000F0D17B681B6803F00803002B38D07B6897
:104EE0005B69002B19D0164B5B6F154A43F0010329
:104EF0005367FDF767FD386108E0FDF763FD024683
:104F00003B69D31A022B01D9032380E10C4B5B6F61
:104F100003F00203002BF0D01AE0094B5B6F084A44
:104F200023F001035367FDF74DFD38610AE0FDF7FB
:104F300049FD02463B69D31A022B03D9032366E1DC
:104F400000380240924B5B6F03F00203002BEED15E
:104F50007B681B6803F00403002B00F0A4808C4BDB
:104F60001B6C03F08053002B0DD1894B1B6C884ABE
:104F700043F080531364864B1B6C03F08053BB607B
:104F8000BB680123FB75834B1B6803F48073002B04
:104F900018D1804B1B687F4A43F480731360FDF780
:104FA00011FD386108E0FDF70DFD02463B69D31A9B
:104FB000642B01D903232AE1764B1B6803F4807329
:104FC000002BF0D07B689B68012B06D1704B1B6FC8
:104FD0006F4A43F0010313672DE07B689B68002B49
:104FE0000CD16B4B1B6F6A4A23F001031367684BAC
:104FF0001B6F674A23F0040313671CE07B689B6800
:10500000052B0CD1624B1B6F614A43F004031367FD
:105010005F4B1B6F5E4A43F0010313670BE05C4B71
:105020001B6F5B4A23F001031367594B1B6F584AF0
:1050300023F0040313677B689B68002B15D0FDF7F2
:10504000C1FC38610AE0FDF7BDFC02463B69D31A9A
:1050500041F28832934201D90323D8E04C4B1B6FB5
:1050600003F00203002BEED014E0FDF7ABFC386137
:105070000AE0FDF7A7FC02463B69D31A41F28832E9
:10508000934201D90323C2E0414B1B6F03F002039B
:10509000002BEED1FB7D012B05D13D4B1B6C3C4A17
:1050A00023F0805313647B689B69002B00F0AE8073
:1050B000374B9B6803F00C03082B6DD07B689B6912
:1050C000022B4BD1324B1B68314A23F080731360A3
:1050D000FDF778FC386108E0FDF774FC02463B6997
:1050E000D31A022B01D9032391E0294B1B6803F04B
:1050F0000073002BF0D17B68DA697B681B6A1A4366
:105100007B685B6A9B011A437B689B6A5B08013B77
:105110001B041A437B68DB6A1B061A437B681B6B04
:105120001B071B4913434B60194B1B68184A43F07C
:1051300080731360FDF746FC386108E0FDF742FC20
:1051400002463B69D31A022B01D903235FE0104BBF
:105150001B6803F00073002BF0D057E00C4B1B686A
:105160000B4A23F080731360FDF72CFC386108E0D4
:10517000FDF728FC02463B69D31A022B01D9032311
:1051800045E0034B1B6803F00073002BF0D13DE0BA
:1051900000380240007000401F4B5B68FB607B687A
:1051A0009B69012B30D0FB6803F480027B68DB69CC
:1051B0009A4229D1FB6803F03F027B681B6A9A423E
:1051C00022D1FA6847F6C07313407A68526A920196
:1051D000934219D1FB6803F440327B689B6A5B08F9
:1051E000013B1B049A420FD1FB6803F070627B689D
:1051F000DB6A1B069A4207D1FB6803F0E0427B683A
:105200001B6B1B079A4201D0012300E000231846C4
:105210001837BD4680BD00BF0038024080B584B05D
:1052200000AF786039600023FB607B68002B01D100
:105230000123D0E06A4B1B6803F00F033A689A42DF
:1052400010D9674B1B6823F00F0265493B68134375
:105250000B60634B1B6803F00F033A689A4201D05E
:105260000123B8E07B681B6803F00203002B20D009
:105270007B681B6803F00403002B05D0594B9B6827
:10528000584A43F4E05393607B681B6803F00803BB
:10529000002B05D0534B9B68524A43F46043936004
:1052A000504B9B6823F0F0027B689B684D49134389
:1052B0008B607B681B6803F00103002B40D07B6888
:1052C0005B68012B07D1474B1B6803F40033002BAD
:1052D00015D101237FE07B685B68022B07D1414B2E
:1052E0001B6803F00073002B09D1012373E03D4BD1
:1052F0001B6803F00203002B01D101236BE0394B43
:105300009B6823F003027B685B68364913438B601C
:10531000FDF758FBF8600AE0FDF754FB0246FB6816
:10532000D31A41F28832934201D9032353E02D4B23
:105330009B6803F00C027B685B689B009A42EBD190
:10534000274B1B6803F00F033A689A4210D2244B94
:105350001B6823F00F0222493B6813430B60204B6C
:105360001B6803F00F033A689A4201D0012332E030
:105370007B681B6803F00403002B08D0194B9B6863
:1053800023F4E0527B68DB68164913438B607B682B
:105390001B6803F00803002B09D0124B9B6823F411
:1053A00060427B681B69DB000E4913438B6000F091
:1053B00021F802460B4B9B681B0903F00F030A49B7
:1053C000CB5C22FA03F3094A1360094B1B681846A9
:1053D000FCF712FC002318461037BD4680BD00BF05
:1053E000003C02400038024070B301080400002075
:1053F000080000202DE9B04F94B000AF00237B647B
:105400000023FB6400233B640023BB64794B9B684F
:1054100003F00C03082B0DD0082B00F2E180002BC9
:1054200002D0042B03D0DBE0734BBB64DBE0734B97
:10543000BB64D8E06F4B5B6803F03F037B646D4B4C
:105440005B6803F48003002B63D06A4B5B689B09A5
:105450000022BB63FA63BB6BC3F308033B63002307
:105460007B63D7E90C4522462B464FF000004FF0F6
:105470000001590141EAD261500102460B46214622
:10548000511A3961294663EB01037B614FF0000239
:105490004FF00003D7E904AB59468B01514643EA6C
:1054A000916351468A015146B2EB0108594663EBBC
:1054B00001094FF000024FF000034FEAC90343EA2D
:1054C00058734FEAC80290469946234618EB0303E7
:1054D000BB602B4649EB0303FB604FF000024FF02B
:1054E0000003D7E9024529464B02214643EAD1533E
:1054F00021464A02104619467B6C0022BB62FA62C2
:10550000D7E90A23FAF7F4FE02460B461346FB647A
:1055100058E0384B5B689B09002218461146C0F3DF
:1055200008033B6200237B62D7E9088942464B4669
:105530004FF000004FF00001590141EAD2615001E3
:1055400002460B464146B2EB010A494663EB010BAA
:105550004FF000024FF000034FEA8B1343EA9A63C7
:105560004FEA8A12B2EB0A0463EB0B054FF000021C
:105570004FF00003EB0043EA5473E20014461D466B
:105580004346E3183B604B4645EB03037B604FF01B
:1055900000024FF00003D7E9004529468B0221465F
:1055A00043EA915321468A02104619467B6C002239
:1055B000BB61FA61D7E90623FAF79AFE02460B4669
:1055C0001346FB640B4B5B681B0C03F003030133B6
:1055D0005B003B64FA6C3B6CB2FBF3F3BB6402E030
:1055E000054BBB6400BFBB6C18465037BD46BDE8D9
:1055F000B08F00BF003802400024F40000127A008F
:1056000080B400AF034B1B681846BD465DF8047BB1
:10561000704700BF0400002080B500AFFFF7F0FF27
:105620000246054B9B689B0A03F007030349CB5CCA
:1056300022FA03F3184680BD0038024080B3010807
:1056400080B500AFFFF7DCFF0246054B9B685B0BA4
:1056500003F007030349CB5C22FA03F3184680BD2D
:105660000038024080B3010880B483B000AF786096
:1056700039607B680F221A60124B9B6803F00302AB
:105680007B685A600F4B9B6803F0F0027B689A605E
:105690000C4B9B6803F4E0527B68DA60094B9B6813
:1056A000DB0803F4E0527B681A61074B1B6803F0C8
:1056B0000F023B681A6000BF0C37BD465DF8047BE3
:1056C000704700BF00380240003C024080B588B0FF
:1056D00000AF786000237B6100233B610023FB6007
:1056E0000023FB610023BB617B681B6803F001039F
:1056F000002B12D0694B9B68684A23F40003936027
:10570000664B9A687B685B6B644913438B607B686C
:105710005B6B002B01D10123FB617B681B6803F4E9
:105720000023002B17D05D4BD3F88C3023F44012AC
:105730007B68DB6B59491343C1F88C307B68DB6BAA
:10574000B3F5801F01D10123FB617B68DB6B002B6C
:1057500001D10123BB617B681B6803F48013002B1C
:1057600017D04E4BD3F88C3023F440027B681B6C6F
:105770004A491343C1F88C307B681B6CB3F5800F2A
:1057800001D10123FB617B681B6C002B01D101233C
:10579000BB617B681B6803F08073002B01D0012381
:1057A000FB617B681B6803F02003002B00F08B80FB
:1057B0003A4B1B6C394A43F080531364374B1B6CD4
:1057C00003F08053BB60BB68354B1B68344A43F41D
:1057D00080731360FDF7F6F8786108E0FDF7F2F8E2
:1057E00002467B69D31A642B01D903238FE32C4B28
:1057F0001B6803F48073002BF0D0284B1B6F03F45D
:1058000040733B613B69002B35D07B681B6B03F415
:1058100040733A699A422ED0204B1B6F23F4407399
:105820003B611E4B1B6F1D4A43F4803313671B4BB8
:105830001B6F1A4A23F480331367184A3B691367B6
:10584000164B1B6F03F00103012B14D1FDF7BAF8BF
:1058500078610AE0FDF7B6F802467B69D31A41F297
:105860008832934201D9032351E30C4B1B6F03F0A1
:105870000203002BEED07B681B6B03F44073B3F57F
:10588000407F11D1054B9B6823F4F8127B68196B9C
:10589000044B0B40014913438B600BE0003802407E
:1058A00000700040FFFCFF0FAC4B9B68AB4A23F439
:1058B000F8139360A94B1A6F7B681B6BC3F30B0340
:1058C000A64913430B677B681B6803F01003002B8A
:1058D00010D0A24BD3F88C30A04A23F08073C2F8CA
:1058E0008C309E4BD3F88C207B689B6B9B49134379
:1058F000C1F88C307B681B6803F48043002B0AD00E
:10590000964BD3F8903023F440327B685B6E93491A
:105910001343C1F890307B681B6803F40043002BED
:105920000AD08E4BD3F8903023F440227B689B6ED4
:105930008A491343C1F890307B681B6803F48033B5
:10594000002B0AD0854BD3F8903023F440127B68AB
:10595000DB6E82491343C1F890307B681B6803F407
:105960000033002B0AD07D4BD3F8903023F4400253
:105970007B681B6F79491343C1F890307B681B68C3
:1059800003F04003002B0AD0744BD3F8903023F07F
:1059900003027B685B6C71491343C1F890307B68EC
:1059A0001B6803F08003002B0AD06C4BD3F89030B7
:1059B00023F00C027B689B6C68491343C1F890305C
:1059C0007B681B6803F48073002B0AD0634BD3F809
:1059D000903023F030027B68DB6C60491343C1F8E0
:1059E00090307B681B6803F40073002B0AD05B4B7C
:1059F000D3F8903023F0C0027B681B6D57491343E6
:105A0000C1F890307B681B6803F48063002B0AD0D8
:105A1000524BD3F8903023F440727B685B6D4F4952
:105A20001343C1F890307B681B6803F40063002BBC
:105A30000AD04A4BD3F8903023F440627B689B6DC8
:105A400046491343C1F890307B681B6803F48053C8
:105A5000002B0AD0414BD3F8903023F440527B689E
:105A6000DB6D3E491343C1F890307B681B6803F43B
:105A70000053002B0AD0394BD3F8903023F4404226
:105A80007B681B6E35491343C1F890307B681B68F7
:105A900003F48003002B0AD0304BD3F8903023F06E
:105AA00080627B689B6F2D491343C1F890307B68FF
:105AB0001B6803F40013002B11D0284BD3F890304F
:105AC00023F000627B68DB6F24491343C1F89030F8
:105AD0007B68DB6FB3F1006F01D10123BB617B6891
