:020000040800F2
:10000000000008209D29000849210008512100080E
:100010005921000861210008692100080000000042
:10002000000000000000000000000000C1B1000856
:100030007121000800000000D1B3000839B40008A5
:10004000ED290008ED290008ED290008ED29000838
:10005000ED290008ED290008ED290008ED29000828
:10006000ED290008ED290008ED290008ED29000818
:10007000ED290008ED290008ED290008ED29000808
:10008000ED290008ED290008ED290008ED290008F8
:10009000ED290008ED290008ED290008ED290008E8
:1000A000ED290008ED290008ED290008ED290008D8
:1000B00081210008ED290008ED290008ED2900083C
:1000C000ED290008ED290008ED290008ED290008B8
:1000D000ED290008ED290008ED290008ED290008A8
:1000E000ED290008ED290008ED290008ED29000898
:1000F000ED29000895210008ED290008ED290008E8
:10010000ED290008ED290008ED290008ED29000877
:10011000ED290008ED290008ED290008ED29000867
:10012000ED290008ED290008ED290008ED29000857
:10013000ED290008A9210008ED290008ED29000893
:10014000ED290008ED290008ED290008ED29000837
:10015000ED290008ED290008ED290008ED29000827
:10016000ED290008ED290008ED290008ED29000817
:10017000ED290008ED290008ED2900080000000025
:10018000ED290008ED290008ED290008ED290008F7
:10019000ED290008ED290008ED290008ED290008E7
:1001A000ED290008ED290008ED290008ED290008D7
:1001B000ED290008ED290008ED290008ED290008C7
:1001C000ED290008ED29000800000000ED290008D5
:1001D000ED290008ED290008ED290008ED290008A7
:1001E000ED290008ED290008ED290008ED29000897
:0801F000ED290008ED290008CB
:1002000010B5054C237833B9044B13B10448AFF350
:1002100000800123237010BDD001002000000000E9
:100220007C7D010808B5034B1BB103490348AFF3BC
:10023000008008BD00000000D40100207C7D010882
:10024000034613F8012B002AFBD1181A0138704716
:1002500001F0FF01102A2BDB10F0070F08D010F877
:10026000013B013A8B422DD010F0070F42B3F6D17B
:10027000F0B441EA012141EA014122F007047FF094
:1002800000070023F0E80256083C85EA010586EAEB
:10029000010685FA47F5A3FA87F586FA47F6A5FA27
:1002A00087F68EB9EED1F0BC01F0FF0102F0070233
:1002B00032B110F8013B013A83EA010313B1F8D1DE
:1002C0000020704701387047002D06BF35460338BF
:1002D000073815F0010F07D1013015F4807F02BFF8
:1002E000013015F4C03F0130F0BC0138704700BF49
:1002F00053B94AB9002908BF00281CBF4FF0FF318D
:100300004FF0FF3000F088B9ADF1080C6DE904CE74
:1003100000F006F8DDF804E0DDE9022304B07047E0
:100320002DE9F047089D8E4604468846002B4AD1A9
:100330008A42174662D9B2FA82F64EB1C6F120035C
:1003400001FA06F820FA03F3B74043EA0808B4407C
:100350004FEA174E1FFA87FCB8FBFEF1230C0EFB89
:10036000118843EA084301FB0CF29A4209D9FB18B1
:1003700001F1FF3080F0EA809A4240F2E7800239D2
:100380003B449A1AA3B2B2FBFEF00EFB102243EAE2
:10039000024300FB0CFC9C4509D9FB1800F1FF321D
:1003A00080F0D6809C4540F2D3803B44023840EA3E
:1003B0000140A3EB0C0300211DB1F3400022C5E96D
:1003C0000032BDE8F0878B4205D90DB1C5E90001C7
:1003D00000210846F5E7B3FA83F1002946D17345B9
:1003E00002D3824200F20581841A6EEB03020120DF
:1003F0009046002DE5D0C5E90048E2E7002A00F06C
:100400009080B2FA82F6002E40F0A4808A1A030C83
:100410004FEA174E80B2BCB20121B2FBFEFC0EFBCC
:100420001C2243EA024304FB0CF29A4207D9FB1850
:100430000CF1FF3802D29A4200F2E080C4469B1AC7
:10044000B3FBFEF20EFB123340EA034302FB04F45B
:100450009C4207D9FB1802F1FF3002D29C4200F205
:10046000CA8002461B1B42EA0C40A5E7C1F12006E8
:100470008B4022FA06F71F430EFA01F420FA06F326
:100480002EFA06FE4FEA1749234300FA01F81FFA35
:1004900087FCBEFBF9F01C0C09FB10EE44EA0E448D
:1004A00000FB0CFEA64502FA01F209D93C1900F145
:1004B000FF3A80F09C80A64540F2998002383C4487
:1004C000A4EB0E041FFA83FEB4FBF9F309FB1344FB
:1004D0004EEA044403FB0CFCA44508D93C1903F183
:1004E000FF3E80F08280A4457FD9023B3C4443EA32
:1004F0000040A4EB0C04A0FB02EC64457346E1460B
:1005000062D35FD05DB1B8EB030264EB090404FA77
:1005100006F622FA01F31E43CC40C5E9006400212F
:100520004FE7B1FBF2FC010C41EA0E4180B240EA18
:1005300001423B4638463C46B846BE462026B1FB03
:10054000F7F1A2EB080241EA0C4166E7014618E721
:1005500010462CE7C6F120022EFA02F3B740B14054
:1005600020FA02F24FEA174E0A43B3FBFEF8BCB280
:100570000EFB1833110C41EA034108FB04F9B040AB
:1005800089454FEA104380B23ED9791808F1FF3C03
:1005900001D289451FD8A1EB0901B1FBFEF909FB86
:1005A00004F80EFB191192B242EA0142424529D2E7
:1005B000BA1809F1FF31C4D24245C2D2A9F10201F1
:1005C0003A44BEE7F0459DD2BEEB02036CEB070C4C
:1005D0000138E14696E7A7EB09094944A8F1020C66
:1005E000B1FBFEF909FB04F8DBE773467FE75046F1
:1005F00066E70846FDE63B44023A33E7ACF1020CFD
:100600003B441CE749469CE7A1EB0901C446B1FB0A
:10061000FEF909FB04F8C4E7704700BF80B582B05B
:1006200000AF0C4B1B6C0B4A43F080531364094B17
:100630001B6C03F080537B607B6804F037FC054B38
:100640001B6F044A43F40043136700BF0837BD46DD
:1006500080BD00BF0038024080B584B000AF786034
:100660000021786805F0AEFFF860FB68044A934209
:1006700001D1012300E0002318461037BD4680BD9C
:10068000AD1007B080B582B000AF7860FFF7C6FF4D
:1006900000220021786805F07BFF00BF0837BD46C7
:1006A00080BD000080B582B000AF78607B68002B11
:1006B0001ED0114B1B68002B1AD00F4B1B687A6899
:1006C0009A4203D30C4B00221A6012E07B680B4A5B
:1006D0009918094B1A687B68D31A1A46074816F00E
:1006E000A5FA054B1A687B68D31A034A136000E029
:1006F00000BF0837BD4680BDEC110020EC01002092
:1007000080B586B000AF786039607B68002B70D010
:100710003B68002B6DD03B4B1B68C3F580533A6898
:100720009A4212D9374B1A683B681344A3F5805399
:100730007B61344B1B687A699A4203D3314B0022A8
:100740001A6002E07869FFF7ADFF2E4B1B682E4A56
:1007500013443A687968184616F055FB294B1A6815
:100760003B681344274A136002E00120FFF79AFF19
:10077000244B1B68002B03D0234B1B78AA2BF4D1EE
:10078000204B1B68032B36D91F4B5B78FB741E4B29
:100790009B781AB21C4BDB781BB21B021BB21343B3
:1007A0001BB23B823B8A0933FB60FB68082B03D9F1
:1007B000FB68B3F5805F03D90120FFF773FF17E0F3
:1007C000104B1B68FA689A4217D8FB68013B0E4A27
:1007D000D35CBB2B03D00120FFF764FF08E0FB686C
:1007E0009BB21946084800F0A7FAF868FFF75AFFCD
:1007F000BAE700BF02E000BF00E000BF1837BD4607
:1008000080BD00BFEC110020EC01002080B500AFDE
:100810000D4B0E4A1A600C4B00221A710A4B002233
:100820005A71094B00225A61074B00229A61064B0C
:1008300001221A62044802F053FB0346002B01D048
:1008400001F086FB00BF80BDF011002000300240A7
:1008500080B485B000AF78607B681B680A4A934219
:100860000BD10A4B1B6B094A43F480531363074BAC
:100870001B6B03F48053FB60FB6800BF1437BD465D
:100880005DF8047B704700BF003002400038024032
:1008900080B483B000AF78603960064A7B6813602B
:1008A000054A3B68136000BF0C37BD465DF8047B0A
:1008B000704700BF141200201812002080B487B0C7
:1008C00000AF786039604FF0FF337B6100233B61FC
:1008D0001EE07A683B6913441B781B067A69534013
:1008E0007B610023FB730DE07B69002B04DA7B69DD
:1008F0005A000D4B534001E07B695B007B61FB7B41
:100900000133FB73FB7B072BEED93B6901333B6162
:100910003A693B689A42DCD37B6918461C37BD466E
:100920005DF8047B704700BFB71DC10480B582B07D
:1009300000AF78607B68002B0BD07868FFF780FCF5
:1009400003469AB24FF0FF337968044806F056FB2D
:1009500000E000BF0837BD4680BD00BF1C3C002042
:100960000FB480B5C2B000AF07F58A7207F5847383
:10097000A3F584731A6007F58473A3F58473381D97
:100980001B68D7F810214FF4807116F031F9C7F8C1
:100990000401D7F80431002B14DDD7F80431FF2B04
:1009A00002DDFF23C7F8043107F58473A3F58272D3
:1009B000D7F80431134400221A703B1D1846FFF784
:1009C000B5FF00E000BF07F58477BD46BDE8804075
:1009D00004B0704780B586B000AF0346FB7107F1E5
:1009E0000C0300221A605A601A81AA233B73032366
:1009F0007B730123FB81FB793B74BB237B7507F180
:100A00000C03043301211846FFF758FF0346C7F8CB
:100A100011300C4B1B68002B08D00A4B1B680A4A8C
:100A2000126807F10C000A21984707E007F10C0152
:100A30004FF0FF330A22054806F0E0FA00BF1837EE
:100A4000BD4680BD14120020181200201C3C00205E
:100A500080B400AF094B00221A60094B00221A60D3
:100A6000084B00221A60084BFF221A70074B012224
:100A70001A7000BFBD465DF8047B70472816002041
:100A8000301600202C1600203416002025160020D9
:100A900080B588B000AF3E4BBB61BB691B687B6112
:100AA000BB6904331B683B617B69B3F1005F66D3AC
:100AB0007B69384A934262D87B6903F00303002BB9
:100AC0005DD13B6903F00103002B5AD03B6903F071
:100AD0007F43B3F1006F56D172B600BF00220121EF
:100AE0002D4804F0C9F92D4B00221A602B4B00222F
:100AF0005A602A4B00229A6004F038FA02F08AF811
:100B00000023FB6110E0264AFB6920334FF0FF31E0
:100B100042F82310224AFB6960334FF0FF3142F85C
:100B20002310FB690133FB61FB69072BEBD91D4ADD
:100B3000BB699360BFF34F8F00BFBFF36F8F00BFE0
:100B400000237B607B6883F3148800BFBFF36F8F43
:100B500000BF7B69BB60BB6883F3088800BF0023CC
:100B6000FB60FB6883F3108800BFBFF34F8F00BFAB
:100B7000BFF36F8F00BF3B69984700BFFDE700BF21
:100B800002E000BF00E000BF2037BD4680BD00BFCF
:100B900000000408000008200004024010E000E00B
:100BA00000E100E000ED00E080B582B000AF00237E
:100BB0007B601A4B1B68002B01D1002329E0174BE7
:100BC0001B684FF0FF31184607F090FE00233B6092
:100BD00016E0134A3B6813441B78002B0DD1104AD2
:100BE0003B68134401221A703B6840F20C4202FB3E
:100BF00003F30C4A13447B6005E03B6801333B6020
:100C00003B68072BE5D9054B1B68184607F0BCFE6F
:100C10007B6818460837BD4680BD00BFA03600205F
:100C2000983600203816002080B584B000AF786078
:100C30007B68002B29D0174B1B68002B25D0154B48
:100C40001B684FF0FF31184607F050FE0023FB6091
:100C500012E0FB6840F20C4202FB03F30E4A13441D
:100C60007A689A4205D10D4AFB68134400221A7033
:100C700005E0FB680133FB60FB68072BE9D9054BF6
:100C80001B68184607F080FE00E000BF1037BD4625
:100C900080BD00BFA0360020381600209836002006
:100CA00080B500AF1B4B1B68002B30D10822002100
:100CB000194815F0D5FF194807F0FFFD0346184AFB
:100CC00013600021174807F059FF0346164A1360C6
:100CD000134B1B68002B03D0134B1B68002B08D150
:100CE0000F4B1B68104A126819461048FFF738FE70
:100CF0000EE000210E4807F074FD0346054A13601C
:100D0000044B1B6819460B48FFF72AFE00E000BFA2
:100D100080BD00BFA8360020983600209CB0010896
:100D2000A0360020A4B00108A4360020A07D010850
:100D3000B4B00108CC7D010880B584B000AF786004
:100D40000B467B807B68002B2ED07B88002B2BD022
:100D50001A4B1B68002B29D0194B1B68002B25D080
:100D60007B8840F20942934222D8FFF71DFFF860CA
:100D7000FB68002B1ED0FB687A881A80FB68023360
:100D80007A887968184616F03EF80C4B1B68F968AB
:100D90000022184607F01AFFB860BB68002B0AD083
:100DA000F868FFF741FF06E000BF04E000BF02E083
:100DB00000BF00E000BF1037BD4680BDA436002054
:100DC000A036002080B58EB002AF78605A4B19680B
:100DD00007F108034FF0FF32184607F037FFBB68F2
:100DE000102B40F0A580FB68BB62BB6A002B00F0B3
:100DF000A180012387F82F30BB6A1B88082B40F2A3
:100E00008280BB6A9B78AA2B7FD1BB6A1B88013B7F
:100E1000BA6A13449B78BB2B79D1BB6ADB7887F81D
:100E20002730BB6A1B791AB2BB6A5B791BB21B0203
:100E30001BB213431BB2BB84BB8C09333B62BB6A3E
:100E40001B881A463B6A934263D1BB6A0633FB6137
:100E5000BB8CFA6913441B781946BB8C0133FA69C1
:100E600013441B781B0241EA0302BB8C0233F9696D
:100E70000B441B781B041A43BB8C0333F9690B44E6
:100E80001B781B061343BB61BB8C1946F869FFF73F
:100E900015FD78617A69BB699A420CD097F82710E2
:100EA000BA8CBB6900937B692448FFF759FD012385
:100EB00087F82F302EE0224B1B78002B11D197F8AA
:100EC0002730002B09D1BB8C012B06D1FB691B7885
:100ED000002B02D1FFF7BCFD03E0012387F82F3080
:100EE00018E0BB6A991CBB6A1B881A46154815F0A6
:100EF0008AFFBB6A1B881946124800F025F8034692
:100F000087F82F3006E000BF04E000BF02E000BF1A
:100F100000E000BF97F82F30002B14BF01230023FF
:100F2000DBB21846FFF756FDB86AFFF77DFE4DE7C6
:100F300000BF4BE700BF49E7A4360020E87D010869
:100F4000251600201C120020F0B59DB004AF78607B
:100F50000B467B80012387F85F307B68002B02D033
:100F60007B88002B06D17B881A4679688248FFF778
:100F7000F7FCEAE1814B1B7819467B881A468048CA
:100F8000FFF7EEFC7B68BB65BB6D5B78002B07D180
:100F9000BB6D1B79022B03D17A48FFF7E1FCD4E14A
:100FA000764B1B78042B00F2C08101A252F823F08B
:100FB000C50F0008CD0F00080B100008DF10000857
:100FC000B3120008002387F85F30BEE17B683B6402
:100FD0003B6C5B7819463B6C1B791A466A48FFF7F5
:100FE000BFFC3B6C5B78002B40F0A6813B6C1B790F
:100FF000002B40F0A1816548FFF7B2FC5F4B022255
:101000001A70002387F85F3096E17B687B647B6C05
:101010005B7819467B6C5B889BB21A465C48FFF78D
:101020009FFC7B6C5B78022B40F088817B6C5B685B
:10103000584A13607B6C9B68574A1360554B1B687A
:10104000554A126819465548FFF78AFC544B1B68ED
:101050001C4607F10C0604F1300C3546234618688F
:1010600059689A68DB680FC5103410366445F4D1AE
:10107000324623461B8813807B7C18463B7C1C46EB
:10108000BB7C1D4697F8283097F8272097F8291041
:101090000291019200932B46224601464148FFF7F8
:1010A0005FFC00F069FB03461A463F4B1A703E4B4B
:1010B0001B7819463D48FFF753FC3B4B1B78FF2B31
:1010C00009D02E4B03221A703948FFF749FC002340
:1010D00087F85F3032E13748FFF742FC2EE17B684A
:1010E0005B7887F853307B6802331B781AB27B68D1
:1010F00003331B781BB21B021BB213431BB2A7F8AE
:10110000503097F85310B7F850202B4B1868214BEC
:101110001B68009303462948FFF722FC97F85330D9
:10112000012B40F00D81244B1A681A4B1B689A4220
:1011300006D32348FFF714FC012387F85F3004E14E
:10114000144B1A681C4B1B68D31AFB64B7F8503059
:10115000FA6C9A4238D2B7F85010174B1A680D4BF8
:101160001B6800931346FA6C1648FFF7F9FB01233E
:1011700087F85F30E9E000BF287E010825160020CF
:10118000587E0108807E0108987E0108BC7E010817
:10119000D07E0108281600202C160020F47E0108BD
:1011A00000000020207F010834160020607F010825
:1011B000807F0108A07F010830160020C47F01084D
:1011C000F87F010824800108634B1B68002B0CBFCB
:1011D0000123002387F84B3097F84B30002B37D092
:1011E0005E48FFF7BDFB5E4B1B681C4607F10C0613
:1011F00004F1300C35462346186859689A68DB6854
:101200000FC5103410366445F4D1324623461B888E
:101210001380544B1B781A4613465B001344DB00C3
:101220009B1A60333B44503B01221A7007F10C03B8
:10123000184600F05FFC034687F84A3097F84A30BA
:1012400019464948FFF78CFB97F84A30002B79D1B3
:10125000444B18787B68191D97F84B30B7F850202D
:1012600000F09EF8034687F8493097F849303A4A2B
:10127000126819463D48FFF773FB97F84930002B79
:1012800013D1354B1A683A4B1B689A4209D1394B36
:1012900004221A703848FFF763FB002387F85F3099
:1012A00053E0002387F85F304AE03448FFF758FBEB
:1012B00046E07B687B657B6D5B7819467B6D1B79AF
:1012C0001A462F48FFF74CFB7B6D5B78002B3BD118
:1012D0007B6D1B79012B37D12A48FFF741FB00F0CA
:1012E00079F9034687F85F3097F85F30194626484A
:1012F000FFF736FB97F85F30002B25D11D4B0022FE
:101300001A70224B01221A70214801F061F821481D
:1013100001F05EF8C82007F0BCFA00F0D7FA1E48CA
:10132000FFF7B0F9FFF7B4FB0EE01C48FFF718FB1E
:10133000012387F85F3008E000BF06E000BF04E04B
:1013400000BF02E000BF00E000BF97F85F30184622
:101350006437BD46F0BD00BF301600206C80010828
:10136000000000203416002088800108B8800108A1
:101370002816002025160020E48001081C810108A1
:1013800038810108588101087C810108503B002008
:1013900094810108A0810108543B0020B08101081C
:1013A000B0B58CB000AF396011461A460346FB71E8
:1013B0000B46BB801346BB71FB79012B03D901237C
:1013C00087F82F3073E003F04DF9034687F82F308C
:1013D00097F82F30002B67D1BB79002B24D0FB79F5
:1013E00019463648FFF7BCFA00233B61FB79002B16
:1013F00001D1072300E00923BB610223FB61022323
:101400003B6207F10C0207F110031146184603F086
:101410008BFA034687F82F3097F82F30002B03D034
:101420002748FFF79DFA42E0FB79002B01D1254BBD
:1014300000E0254B7B620023BB6224E0234B1A684B
:101440007B6AD1183A68BB6A13441B78DBB200226E
:101450001C46154622462B46002003F0A9F80346F9
:1014600087F82F3097F82F30002B05D1174B1B68CA
:101470000133164A136003E01548FFF771FA06E0DE
:10148000BB6A0133BB62BB88BA6A9A42D6D397F86B
:101490002F30002B0AD103F007F9034687F82F30CD
:1014A00097F82F30002B02E000BF00E000BF97F854
:1014B0002F3018463037BD46B0BD00BFD08101087F
:1014C000EC81010800000C08000014083016002010
:1014D00000820108B0B58AB000AF7860396003F0CF
:1014E000C1F8034687F8273097F82730002B5BD1E7
:1014F0004FF0FF3003F0E8F8314B7322DA603148E7
:10150000FFF72EFA0023FB6005237B610223BB61FA
:101510000223FB6107F1080207F10C03114618468C
:1015200003F002FA034687F8273097F82730002B9C
:1015300003D02548FFF714FA3BE000233B621DE08F
:101540003B6A224919447A683B6A13441B78DBB230
:1015500000221C46154622462B46002003F028F8A0
:10156000034687F8273097F82730002B03D0184818
:10157000FFF7F6F906E03B6A01333B623A6A3B68E3
:101580009A42DDD397F82730002B0FD103F08CF867
:10159000034687F8273097F82730002B08D14FF003
:1015A000FF3003F091F804E000BF02E000BF00E06C
:1015B00000BF97F8273018462837BD46B0BD00BF9A
:1015C000003C024014820108348201080000040833
:1015D0004C820108F0B593B002AF5B4B1B78002B37
:1015E00001D15A4B00E05A4BBB63574B1B7819464D
:1015F000584B1A68584B1B6800931346BA6B5748F0
:10160000FFF7AEF9BB6B534A126811461846FFF755
:1016100055F97863504B1B687A6B9A4208D04E4B51
:101620001B681A46796B4E48FFF79AF9012386E04A
:101630004C48FFF795F94C4B1B681C463E4604F19D
:10164000300C35462346186859689A68DB680FC520
:10165000103410366445F4D1324623461B8813807B
:10166000394B1B781A4613465B001344DB009B1A68
:1016700040333B44403B7A6BC3F80B20324B1B7822
:101680001A46344B196813465B001344DB009B1A5F
:1016900040333B44403BC3F807102B4B1B781A46A2
:1016A00013465B001344DB009B1A40333B443C3B36
:1016B00000221A70244B1B781A4613465B00134411
:1016C000DB009B1A40333B443A3B01221A70002353
:1016D00087F83F3016E01C4B1B7897F83F209A4262
:1016E0000BD097F83F2013465B001344DB009B1A96
:1016F00040333B443A3B00221A7097F83F300133A5
:1017000087F83F3097F83F30012BE4D9174B3B6007
:101710003B46184600F0EEF9034687F8333097F859
:10172000333019461248FFF71BF997F83330002B76
:1017300004D01048FFF714F9012300E000231846F5
:101740004437BD46F0BD00BF3416002000000C0831
:1017500000001408281600202C16002064820108BE
:10176000A4820108D882010800000020EDFEEFBE2F
:10177000E882010814830108F0B58FB000AF4E4B2A
:101780001B681C463E4604F1300C3546234618685B
:1017900059689A68DB680FC5103410366445F4D177
:1017A000324623461B881380002387F837301AE01F
:1017B00097F8372013465B001344DB009B1A38333D
:1017C0003B44343B1B78012B08D197F8373019463E
:1017D0003A48FFF7C5F897F8373068E097F83730A0
:1017E000013387F8373097F83730012BE0D90023E1
:1017F00087F8363025E097F8362013465B0013440F
:10180000DB009B1A38333B44333B1B78012B13D04E
:1018100097F8361097F8362013465B001344DB0028
:101820009B1A38333B44333B1B781A462448FFF756
:1018300097F897F836303AE097F83630013387F862
:10184000363097F83630012BD5D9002387F835305C
:1018500025E097F8352013465B001344DB009B1A04
:1018600038333B44323B1B78012B13D097F83510AB
:1018700097F8352013465B001344DB009B1A38337E
:101880003B44323B1B781A460E48FFF769F897F83D
:1018900035300CE097F83530013387F8353097F85C
:1018A0003530012BD5D90848FFF75AF800231846E0
:1018B0003C37BD46F0BD00BF00000020308301086A
:1018C000548301087883010898830108F0B593B028
:1018D00000AF002387F84730002387F846307B4B62
:1018E0001B681C463E4604F1300C354623461868FA
:1018F00059689A68DB680FC5103410366445F4D116
:10190000324623461B881380002387F8453037E092
:1019100097F8452013465B001344DB009B1A4833BD
:101920003B44423B1B78012B25D197F845301946A3
:101930006748FFF715F8012387F8473097F84530D7
:1019400087F8463097F8452013465B001344DB00C8
:101950009B1A48333B44433B01221A7097F84520B9
:1019600013465B001344DB009B1A48333B44423B65
:1019700000221A7008E097F84530013387F84530A7
:1019800097F84530012BC3D997F84730002B50D03A
:10199000002387F8443016E097F8462097F8443043
:1019A0009A420BD097F8442013465B001344DB00A7
:1019B0009B1A48333B44433B00221A7097F844304B
:1019C000013387F8443097F84430012BE4D997F875
:1019D0004630002B01D13F4B00E03F4BFB63F86BDF
:1019E00097F8462013465B001344DB009B1A4833EC
:1019F0003B44483BD3F807301946FFF76BFD0346DD
:101A000087F83B3097F83B30002B03D03348FEF784
:101A1000A7FF2DE03B46184600F06CF8034687F818
:101A20003B3097F83B30002B22D02D48FEF798FF33
:101A30001EE0002387F8433016E097F84320134652
:101A40005B001344DB009B1A48333B44433B1B7849
:101A5000012B04D197F8433087F8463008E097F817
:101A60004330013387F8433097F84330012BE4D9F2
:101A70001C48FEF775FF97F8462013465B00134499
:101A8000DB009B1A48333B44483BD3F807301946E8
:101A90001548FEF713FF786397F8462013465B005E
:101AA0001344DB009B1A48333B44483BD3F80B30CC
:101AB0007A6B9A4203D00D48FEF752FF02E00C48C1
:101AC000FEF74EFF00BF4C37BD46F0BD00000020C2
:101AD000D483010800000C0800001408F8830108F2
:101AE0001483010818840108000004083C840108DC
:101AF00060840108B0B58CB000AF78607B68002BC3
:101B000003D1012387F82F3062E002F0ABFD0346DA
:101B100087F82F3097F82F30002B54D14FF0FF303B
:101B200002F0D2FD00233B610423BB610123FB6172
:101B300002233B62294B7322DA6007F10C0207F1A2
:101B400010031146184602F0EFFE034687F82F30C7
:101B500097F82F30002B38D17B687B620023BB6263
:101B60001DE0BB6A1E4919447A6ABB6A13441B789C
:101B7000DBB200221C46154622462B46002002F00E
:101B800017FD034687F82F3097F82F30002B03D02E
:101B90001448FEF7E5FE05E0BB6A0133BB62BB6A91
:101BA000312BDED94FF0FF3002F08EFD97F82F3049
:101BB000002B0CD102F078FD034687F82F3097F800
:101BC0002F30002B04E000BF02E000BF00E000BFA8
:101BD00097F82F3018463037BD46B0BD003C024064
:101BE000000002081483010880B485B000AFF860DB
:101BF000B9607A60FB68074A1A60BB68064A1A60D7
:101C00007B684FF480721A6000BF1437BD465DF8E0
:101C1000047B7047B036002050370020B0B588B044
:101C200000AF0A4B3C1D1D460FCD0FC495E80700C1
:101C300084E807003B1D0021184606F0D2FD03464C
:101C4000034A136000BF2037BD46B0BD8C84010835
:101C5000AC36002080B586B000AF786005F0D8FEC5
:101C6000FFF71EF80023FB6000233B6107F10C0324
:101C70000121184606F0BEFE03461D4A13601C4BA8
:101C80001B680021184606F0F5FE00F061FC184BB9
:101C90001B68002B04D11748FEF762FE00F058F9CC
:101CA000134B1B684FF0FF31184606F0E3FE00238C
:101CB0007B610AE07B69002B04D10F4800F088FBB0
:101CC00001237B61C82006F0E4FD0C48FEF7C4FC4C
:101CD0000346002BEED10A4800F07AFBC82006F03C
:101CE000D8FDFEF7D5FE012006F0D3FDFBE700BFCF
:101CF000CC3B0020A8840108C8840108543B002084
:101D0000E484010880B58CB000AF07F11C03002209
:101D10001A605A609A60DA601A613B4B1B6B3A4A50
:101D200043F004031363384B1B6B03F00403BB61E4
:101D3000BB69354B1B6B344A43F080031363324B52
:101D40001B6B03F080037B617B692F4B1B6B2E4A5F
:101D500043F0010313632C4B1B6B03F001033B6146
:101D60003B69294B1B6B284A43F002031363264B44
:101D70001B6B03F00203FB60FB68234B1B6B224AC7
:101D800043F008031363204B1B6B03F00803BB6095
:101D9000BB681D4B1B6B1C4A43F0400313631A4B7B
:101DA0001B6B03F040037B607B68002244F28111CF
:101DB000164803F061F800224FF48061144803F0E4
:101DC0005BF844F28113FB6101233B6200237B62D9
:101DD0000023BB6207F11C0319460C4802F0A0FE69
:101DE0004FF48063FB6101233B6202237B6200238B
:101DF000BB6207F11C031946054802F091FE00BFC3
:101E00003037BD4680BD00BF0038024000040240AC
:101E1000000C024080B500AF00F0EFFE00F014F8B7
:101E2000FFF770FF00F02AFDFEF7F0FC00F0B4FCB5
:101E300000F094F84FF4C87000F040FFFFF7EEFE9A
:101E400006F0B8FC00BFFDE780B594B000AF07F125
:101E50001C0334220021184614F002FF07F1080386
:101E600000221A605A609A60DA601A6103F01EF864
:101E70002C4B1B6C2B4A43F080531364294B1B6C77
:101E800003F080537B607B68274B1B68264A43F432
:101E900040431360244B1B6803F440433B603B68A2
:101EA0000923FB614FF4A0233B6201233B63022320
:101EB0007B634FF48003BB630423FB63D8233B6441
:101EC00002237B640423BB640223FB6407F11C032D
:101ED000184603F02BF90346002B01D000F038F828
:101EE00002F0F4FF0346002B01D000F031F80F237D
:101EF000BB600223FB6000233B614FF4A0537B6176
:101F00004FF48053BB6107F108030721184603F023
:101F1000BBFB0346002B01D000F01AF800BF50377E
:101F2000BD4680BD003802400070004080B582B0E0
:101F300000AF78607B681B68044A934201D100F0CF
:101F40009DFE00BF0837BD4680BD00BF0020004099
:101F500080B400AF72B600BF00BFFDE780B500AF30
:101F60000F4B104A1A600E4B00225A600C4B7F2216
:101F70009A600B4BFF22DA60094B00221A61084B72
:101F800000225A61064B00229A61054804F0FCF9D0
:101F90000346002B01D0FFF7DBFF00BF80BD00BF71
:101FA000543B00200028004080B5A6B000AF786008
:101FB00007F1080390220021184614F051FE7B68B7
:101FC0001B680E4A934214D12023BB604FF4007368
:101FD000BB6307F10803184603F0AEFD0346002B70
:101FE00001D0FFF7B5FF064B1B6F054A43F40043D2
:101FF000136700BF9837BD4680BD00BF0028004072
:102000000038024080B582B000AF114B1B6C104A03
:1020100043F0805313640E4B1B6C03F080537B60C2
:102020007B680B4B5B6C0A4A43F480435364084B58
:102030005B6C03F480433B603B6800220F216FF030
:10204000010000F023FF00BF0837BD4680BD00BF80
:102050000038024080B58EB000AF78600023FB628C
:102060000023BB62334B1B6C324A43F4807313640E
:10207000304B1B6C03F48073FB60FB6807F11002AC
:1020800007F114031146184603F024FD3B6AFB6276
:10209000FB6A002B03D103F0F5FC786304E003F046
:1020A000F1FC03465B007B637B6B234AA2FB0323AB
:1020B0009B0C013BBB62214B214A1A601F4B40F233
:1020C000E732DA601D4ABB6A53601C4B00221A617A
:1020D0001A4B00229A60194B00229A61174804F0AB
:1020E00089FA034687F8333097F83330002B1BD139
:1020F000124804F0D7FA034687F8333097F83330A4
:10210000002B11D12D2000F0DDFE7B680F2B08D8AD
:10211000002279682D2000F0B9FE0A4A7B6813601E
:1021200002E0012387F8333097F833301846383708
:10213000BD4680BD0038024083DE1B43743B002057
:10214000002000400800002080B400AF00BFFDE781
:1021500080B400AF00BFFDE780B400AF00BFFDE773
:1021600080B400AF00BFFDE780B400AF00BFFDE763
:1021700080B400AF00BFBD465DF8047B704700002F
:1021800080B500AF024804F005FB00BF80BD00BF72
:10219000D03B002080B500AF024804F0FBFA00BF3E
:1021A00080BD00BF743B002080B500AF024801F045
:1021B00017FB00BF80BD00BFA486002080B400AF25
:1021C00001231846BD465DF8047B704780B483B098
:1021D00000AF78603960054B16221A604FF0FF336C
:1021E00018460C37BD465DF8047B7047A43C0120BF
:1021F00080B582B000AF78604FF0FF317868FFF7AC
:10220000E5FF00BFFDE780B586B000AFF860B960BC
:102210007A6000237B610AE0AFF300800146BB686F
:102220005A1CBA60CAB21A707B6901337B617A6941
:102230007B689A42F0DB7B6818461837BD4680BD44
:1022400080B586B000AFF860B9607A6000237B612A
:1022500009E0BB685A1CBA601B781846AFF30080CF
:102260007B6901337B617A697B689A42F1DB7B6829
:1022700018461837BD4680BD80B483B000AF786083
:102280004FF0FF3318460C37BD465DF8047B7047AE
:1022900080B483B000AF786039603B684FF400527F
:1022A0005A60002318460C37BD465DF8047B704722
:1022B00080B483B000AF7860012318460C37BD4668
:1022C0005DF8047B704780B485B000AFF860B960FA
:1022D0007A60002318461437BD465DF8047B7047CA
:1022E00080B487B000AF7860144A154BD31A7B6175
:1022F0007B693B61134B1B68002B02D1114B124AC7
:102300001A60104B1A687B6813443A699A4205D2E6
:102310000E4B0C221A604FF0FF3309E0094B1B688B
:10232000FB60084B1A687B681344064A1360FB681D
:1023300018461C37BD465DF8047B70470000082036
:1023400000040000C03B0020B83C0120A43C012058
:1023500080B400AF064BD3F88830054A43F47003CD
:10236000C2F8883000BFBD465DF8047B704700BFEF
:1023700000ED00E080B584B000AF78607B68FB6062
:10238000FB68002B20D0FB681B68002B18D0FB6873
:102390001B68B3F86420FB689B889A4210D3FB68E3
:1023A0001868FB68991DFB689A8801230FF016FED8
:1023B0000346002B04D1FB681B68184610F0F8FB9D
:1023C000F86809F029FE00E000BF1037BD4680BD67
:1023D00080B584B000AF78607B68002B30D01C4B98
:1023E0001B68002B2CD07868FDF72AFFF860FB688B
:1023F000002B27D0FB685F2B01D95F23FB6068208F
:1024000009F0A4FFB860BB68002B1DD0104B1A6800
:10241000BB681A60FB689AB2BB689A80BB680633D7
:10242000FA687968184614F0EEFCBA68FB68134441
:10243000063300221A70B968064809F097FB04E0D9
:1024400000BF02E000BF00E000BF1037BD4680BD06
:10245000C43B00207523000880B584B000AF7860CD
:102460007B68FB60FB68002B20D0FB681B68002B9F
:1024700018D0FB681B68B3F86420FB689B889A42FD
:1024800010D3FB681868FB68991DFB689A880123C4
:102490000FF0A4FD0346002B04D1FB681B6818460F
:1024A00010F086FBF86809F0B7FD00E000BF1037B8
:1024B000BD4680BD80B586B000AFF8600B467A603F
:1024C0007B817B687B61FB68002B23D07B89002BA1
:1024D00020D07B69002B1DD0182009F037FF386110
:1024E0003B69002B18D03B697A691A607B89102BF5
:1024F00028BF10239AB23B699A803B69981D3B69BB
:102500009B881A46F96814F07EFC3969044809F082
:102510002DFB02E000BF00E000BF1837BD4680BDC4
:102520005924000880B483B000AF78600B46FB707C
:10253000054B00221A60054B00221A6000BF0C37C1
:10254000BD465DF8047B7047C43B0020C83B0020BB
:1025500080B584B000AF204B7B600CF0FBFDF860D1
:10256000FB68002B16D03B1D40F2D1721946F8686B
:102570000BF04AFD0346002B09D1FF21F8680BF050
:10258000FBFDF8601549F8680CF064FE02E0F8689D
:102590000BF044FC0CF0DEFDB860BB68002B16D0DD
:1025A0003B1D4FF4FA621946B8680BF02DFD034647
:1025B000002B09D1FF21B8680BF0DEFDB860074998
:1025C000B8680CF047FE02E0B8680BF027FC00BFCB
:1025D0001037BD4680BD00BFC0A80019E125000826
:1025E00080B586B000AFF860B9601346FB71012179
:1025F000B8680CF0BDFBBB685B8B43F040039AB23C
:10260000BB685A832149B8680CF002FEBB68DB8ABC
:10261000B3F5FA6F22D11E4ABB6813600021B86877
:102620000CF0B2FD1A4B1B6819461A48FEF730F938
:10263000194B7B617869FDF703FE03469AB20123CB
:102640007969B8680FF0CAFCB86810F0B1FA134B9A
:102650001B68184606F05CFA002313E0BB68DB8AAF
:1026600040F2D172934208D10D4ABB6813600D4904
:10267000B8680CF089FD002304E0B86800F054F855
:102680006FF0050318461837BD4680BD25250008A4
:10269000C43B0020B52400080C850108CC3B002079
:1026A000C83B0020A926000880B586B000AFF860BE
:1026B000B9607A60FB707B68002B04D1B86800F0C9
:1026C00033F800232CE097F90330002B05D078680D
:1026D0000AF0FAFE97F9033022E07B687B6112E092
:1026E0007B695B89002B0BD07B695B68002B07D073
:1026F0007B695A687B695B8919461046FEF700F8CA
:102700007B691B687B617B69002BE9D17B681B8936
:102710001946B8680BF046FE78680AF0D5FE00232B
:1027200018461837BD4680BD80B582B000AF7860CE
:102730007B68002B28D0164B1B687A689A4202D11E
:10274000134B00221A60134B1B687A689A4202D11D
:10275000104B00221A60002178680CF003FD002164
:1027600078680CF055FD002178680CF02FFD0021F1
:1027700078680CF009FD0022002178680CF082FDD9
:1027800078680BF04BFB00E000BF0837BD4680BD0A
:10279000C43B0020C83B002080B588B000AF07F1E3
:1027A000100300221A605A609A60DA603B1D002212
:1027B0001A605A609A601E4B4FF080421A601C4BA0
:1027C00045F260425A601A4B00229A60184B64220C
:1027D000DA60174B00221A61154B80229A61144867
:1027E00003F008FF0346002B01D0FFF7B1FB4FF4C5
:1027F00080533B6107F1100319460D4804F0D2F8ED
:102800000346002B01D0FFF7A3FB00237B600023CE
:10281000FB603B1D1946064804F0F6FA0346002B00
:1028200001D0FFF795FB00BF2037BD4680BD00BF3C
:10283000D03B002080B584B000AF78607B681B6817
:10284000B3F1804F13D10C4B1B6C0B4A43F00103C7
:102850001364094B1B6C03F00103FB60FB6800224F
:1028600005211C2000F012FB1C2000F02BFB00BFF8
:102870001037BD4680BD00BF0038024080B500AFB4
:10288000144B154A1A60134B4FF4E1325A60114B46
:1028900000229A600F4B0022DA600E4B00221A6170
:1028A0000C4B0C225A610B4B00229A61094B0022FF
:1028B000DA61084B00221A62064B00225A62054870
:1028C00004F04EFB0346002B01D0FFF741FB00BF95
:1028D00080BD00BF1C3C00200048004080B5AEB069
:1028E00000AF786007F1A40300221A605A609A6072
:1028F000DA601A6107F1140390220021184614F0DF
:10290000AFF97B681B68224A93423CD14FF4807335
:102910007B6100233B6607F11403184603F00CF9B2
:102920000346002B01D0FFF713FB1A4B1B6C194A0F
:1029300043F480231364174B1B6C03F480233B6127
:102940003B69144B1B6B134A43F008031363114B91
:102950001B6B03F00803FB60FB684FF44073C7F880
:10296000A4300223C7F8A8300023C7F8AC300323F3
:10297000C7F8B0300723C7F8B43007F1A4031946ED
:10298000054802F0CDF800BFB837BD4680BD00BF96
:102990000048004000380240000C0240DFF834D00C
:1029A000FFF7D6FC0C480D490D4A002302E0D4582D
:1029B000C4500433C4188C42F9D30A4A0A4C002389
:1029C00001E013600432A242FBD314F0F5F9FFF7E3
:1029D00021FA70470000082000000020900000202D
:1029E00010B30108D0010020B43C0120FEE780B400
:1029F00083B000AF786039607B68002B0BD03B68F8
:102A0000DB68002B07D03B689B68002B03D03B683A
:102A10001B69002B02D14FF0FF3314E03B681A68AA
:102A20007B689A603B685A687B68DA603B68DA6862
:102A30007B685A613B689A687B681A613B681A69CF
:102A40007B689A61002318460C37BD465DF8047B0D
:102A5000704780B586B000AF78600023FB6000232C
:102A60007B6100233B617B685B68002B39D17B680D
:102A70009B68002B02D07B689B6898477B6820226C
:102A80001A6000237B611CE07B685B6907F10C0224
:102A90001221786998470346002B03DA6FF004038C
:102AA0003B610BE0FB6803F01F037A699A4205D192
:102AB0007B687A691A6000233B6105E07B6901331A
:102AC0007B617B691F2BDFD97B681B681F2B02D9B9
:102AD0006FF002033B613B69002B02D17B6801224E
:102AE0005A603B6918461837BD4680BD80B584B032
:102AF00000AF78600023FB607B685B697A681068D0
:102B000007F10C02012198470346002B02DA6FF00F
:102B100004036EE07B685B697A68106807F10C0259
:102B2000012198470346002B02DA6FF0040360E0AE
:102B3000FB6803F00403002B01D1012359E07B68FB
:102B40005B697A68106807F10C0200219847034618
:102B5000002B02DA6FF004034BE0FB6803F48053B0
:102B6000002B1BD1FB6803F40053002B06D0FB683D
:102B700003F48073002B01D002233AE0FB6803F4D6
:102B80000053002B01D0032333E0FB6803F4807370
:102B9000002B01D004232CE005232AE07B685B692D
:102BA0007A68106807F10C021F2198470346002B32
:102BB00002DA6FF004031CE0FB6803F48053002B7F
:102BC00001D1062315E0FB6803F01C03182B01D18B
:102BD00002230EE0FB6803F01C03082B01D1032342
:102BE00007E0FB6803F01C03142B01D1042300E071
:102BF000052318461037BD4680BD80B500AF0320C1
:102C000000F039F90F20FFF725FAFFF7FBF9002351
:102C1000184680BD80B500AF134B4FF0FF321A62EB
:102C2000114B00221A62104B4FF0FF325A620E4BCA
:102C300000225A620C4B4FF0FF321A610A4B0022FD
:102C40001A61094B4FF0FF325A61074B00225A615B
:102C5000054B4FF0FF329A61034B00229A6100F05E
:102C600005F80023184680BD0038024080B400AF4C
:102C700000BFBD465DF8047B7047000080B400AF24
:102C8000064B1B781A46064B1B681344044A136014
:102C900000BFBD465DF8047B704700BF0C000020FC
:102CA000A43C002080B400AF034B1B681846BD460F
:102CB0005DF8047B704700BFA43C002080B584B061
:102CC00000AF7860FFF7EEFFB8607B68FB60FB68E1
:102CD000B3F1FF3F05D00A4B1B781A46FB6813443B
:102CE000FB6000BFFFF7DEFF0246BB68D31AFA683D
:102CF0009A42F7D800BF00BF1037BD4680BD00BF65
:102D00000C00002080B400AF034B1B681B0C18465E
:102D1000BD465DF8047B7047002004E080B485B0B8
:102D200000AF78607B6803F00703FB600B4BDB6848
:102D3000BB60BA684FF6FF031340BB60FB681A0222
:102D4000BB681A43064B1343BB60044ABB68D3609D
:102D500000BF1437BD465DF8047B704700ED00E00E
:102D60000000FA0580B400AF044BDB681B0A03F0D7
:102D700007031846BD465DF8047B704700ED00E090
:102D800080B483B000AF0346FB7197F90730002B86
:102D90000BDBFB7903F01F02074997F907305B094A
:102DA000012000FA02F241F8232000BF0C37BD4693
:102DB0005DF8047B704700BF00E100E080B483B0A1
:102DC00000AF03463960FB7197F90730002B0ADB2F
:102DD0003B68DAB20C4997F907301201D2B20B44C2
:102DE00083F800230AE03B68DAB20849FB7903F074
:102DF0000F03043B1201D2B20B441A7600BF0C370A
:102E0000BD465DF8047B704700E100E000ED00E0A6
:102E100080B489B000AFF860B9607A60FB6803F0F5
:102E20000703FB61FB69C3F10703042B28BF0423DD
:102E3000BB61FB690433062B02D9FB69033B00E04D
:102E400000237B614FF0FF32BB6902FA03F3DA43E0
:102E5000BB681A407B699A404FF0FF317B6901FAE9
:102E600003F3D9437B680B40134318462437BD4610
:102E70005DF8047B704780B582B000AF78607868F9
:102E8000FFF74CFF00BF0837BD4680BD80B586B058
:102E900000AF0346B9607A60FB7300237B61FFF7E4
:102EA00061FF78617A68B9687869FFF7B1FF024617
:102EB00097F90F3011461846FFF780FF00BF18370B
:102EC000BD4680BD80B582B000AF0346FB7197F967
:102ED00007301846FFF754FF00BF0837BD4680BDD6
:102EE00080B582B000AF78607B68002B01D10123F0
:102EF00054E07B685B7FDBB2002B05D17B6800224E
:102F00001A777868FDF7A4FC7B6802225A777B6801
:102F10001B79002B0CD17B681B68224A5A617B68A5
:102F20001B689A687B681B6822F018029A600CE0A4
:102F30007B6899687B68DB681A46786800F034F82B
:102F40000346002B01D0012328E07B685B79002B2E
:102F500005D17B681B684FF0FF321A6104E07B6883
:102F60001B687A6812691A617B681B689B6823F08A
:102F700060017B685A697B681B680A439A607B68BA
:102F80001B689B6823F080017B689A697B681B68DB
:102F90000A439A607B6801225A7700231846083753
:102FA000BD4680BDB71DC10480B487B000AFF860D6
:102FB000B9607A600023FB751F233B61BB6803F097
:102FC0000103002B02D10123FB7563E000BF3B69C5
:102FD0005A1E3A61002B09D03B6903F01F03BA68FF
:102FE00022FA03F303F00103002BF0D07B68182BC7
:102FF00046D801A252F823F087300008813000083B
:1030000081300008813000088130000881300008DC
:1030100081300008813000087530000881300008D8
:1030200081300008813000088130000881300008BC
:1030300081300008813000086930000881300008C4
:10304000813000088130000881300008813000089C
:1030500081300008813000085D3000083B69062B94
:1030600013D90123FB7510E03B69072B0FD901230E
:10307000FB750CE03B690F2B0BD90123FB7508E0B6
:103080000123FB7506E000BF04E000BF02E000BFC3
:1030900000E000BFFB7D002B0DD1FB681B68BA6808
:1030A0005A61FB681B689B6823F01801FB681B686A
:1030B0007A680A439A60FB7D18461C37BD465DF866
:1030C000047B704780B584B000AF78607B68002BCC
:1030D00001D1012386E07B68D3F88430002B06D130
:1030E0007B682022C3F88420786805F0EBF83F4B1A
:1030F0005B6C3E4A43F4804353643C4B5B6C03F48B
:103100008043BB60BB683A4B5B68394A23F40003D9
:103110005360374B5A687B689B68354913434B6053
:10312000334B5B687B681B6803F580531B687A68C8
:10313000126843F0010302F580521360FFF7B2FDFD
:10314000F86011E0FFF7AEFD0246FB68D31AB3F555
:10315000FA7F09D97B680422C3F888207B68E022C3
:10316000C3F8842001233DE07B681B6803F580538E
:103170001B6803F00103002BE4D1786800F05CFFCA
:10318000786801F007F8786801F05DF87B685B68A3
:103190001A460021786800F0C5FF7B681B68DA6B6F
:1031A0007B681B6842F40272DA637B681B68D3F8A1
:1031B0000C117B681A680F4B0B43C2F80C317B680B
:1031C0001B68D3F810217B681B6842F40312C3F814
:1031D00010217B680022C3F888207B681022C3F886
:1031E0008420002318461037BD4680BD00380240B9
:1031F000003801406000020080B584B000AF786004
:103200007B68D3F88430102B5FD17B682022C3F811
:1032100084207B6801229A657B680422DA667868DC
:1032200000F0F6F97B681B681B68FB600120FFF764
:1032300045FD7B681B68FA681A607B681B6803F5AC
:1032400080539B697A68126843F4005302F58052F8
:1032500093617B681B6803F580539B697A681268E9
:1032600043F0020302F580529361786800F080FD1C
:103270007B681B681A687B681B6842F008021A604A
:103280007B681B681B68FB600120FFF717FD7B68EC
:103290001B68FA681A607B681B681A687B681B6881
:1032A00042F004021A607B681B6803F58053D969F9
:1032B0007B681A68074B0B4302F58052D3617B6829
:1032C0004022C3F88420002300E001231846103771
:1032D000BD4680BDC1A0010080B586B000AF78605A
:1032E0007B68D3F88430402B6ED17B682022C3F8F2
:1032F00084207B681B6803F58053D9697B681A6852
:10330000344B0B4002F58052D3617B681B6803F598
:1033100080539B697A68126823F4005302F5805247
:1033200093617B681B6803F580539B697A68126818
:1033300023F0020302F5805293617B681B681A68D0
:103340007B681B6822F004021A607B681B681B689C
:103350003B610120FFF7B2FC7B681B683A691A6089
:10336000786800F005FD7B681B681A687B681B683D
:1033700022F008021A607B681B681B683B61012011
:10338000FFF79CFC7B681B683A691A6000237B612D
:103390000EE07B687A69123253F82230FB60FB68DA
:1033A0005B6843F00042FB685A607B6901337B61D4
:1033B0007B69032BEDD97B6800229A657B6810221C
:1033C000C3F88420002300E0012318461837BD46C7
:1033D00080BD00BF3E5FFEFF80B582B000AF786069
:1033E00039603B68002B09D17B68D3F8883043F003
:1033F00001027B68C3F88820012345E07B68D3F88D
:103400008430402B3FD13B685A6B7B68DA630122E2
:103410003968786800F086FF0346002B09D07B6886
:10342000D3F8883043F002027B68C3F88820012378
:103430002AE0BFF34F8F00BF7B689B6A5A1C7B68F2
:103440009A627B689B6A032B04D97B689B6A1A1F6C
:103450007B689A627B681B6803F580535B6903F0A5
:103460000403002B0DD07B681B6803F580531A46BC
:10347000042353617B681B6803F580531A460023BD
:103480005360002300E0012318460837BD4680BD85
:1034900080B588B000AF7860396000237B6100237D
:1034A000FB743B68002B09D17B68D3F8883043F06C
:1034B00001027B68C3F888200123A4E07B68D3F86D
:1034C0008430402B01D001239DE07B68DB6DFB61E4
:1034D0007B68FA69123253F82230BB617B68DB6E7D
:1034E000C3F10403FB6066E0BB691B6803F48073EF
:1034F000002B07D0BB69DA697B689A67BB699A6958
:103500007B685A67BB691B6803F40073002B03D107
:103510007B68DB6F002B3CD0BB691B6803F4007336
:10352000002B05D07B6800221A667B6800225A6651
:10353000BB691B681B0CC3F30D03BB60BB691B6835
:1035400003F48073002B05D0BB691A687B681A6787
:103550000123FB74BB699A68BB691A627B6803F13B
:103560007C007B6803F18001BB691B6A1A46BB685B
:103570009BB205F073F87B681B6E5A1C7B681A6659
:103580007B685A6EBB681A447B685A66BB69002226
:103590001A62FB690133FB61FB69032B02D9FB69EA
:1035A000043BFB617B68FA69123253F82230BB613D
:1035B0007B6901337B61BB691B68002B06DB7A6981
:1035C000FB689A4202D2FB7C002B8DD07B68DA6EBE
:1035D0007B691A447B68DA667B68DB6E002B02D05D
:1035E000786800F015F87B68FA69DA65FB7C012BD6
:1035F00008D17B68DA6F3B681A607B680022DA6763
:10360000002300E0012318462037BD4680BD00009E
:1036100080B588B000AF78600023BB600123FB74E5
:103620007B689B6EFB617B68FA69123253F822302B
:103630007B617B68DB6EBB6142E07B691B6A002BB0
:1036400012D107F10803184604F0D8FFBB68002B1D
:1036500002D10023FB7407E0BB681A467B691A623B
:10366000BB681A467B699A60FB7C002B28D07B687C
:103670009B6D002B06D17B685A69264B13437A69F0
:10368000536005E07B685B6943F480427B695A6064
:103690007B691B6843F000427B691A60FB69013358
:1036A000FB61FB69032B02D9FB69043BFB617B686F
:1036B000FA69123253F822307B61BB69013BBB616E
:1036C000BB69002B02D0FB7C002BB6D17B68DB6E84
:1036D000BA699A421AD0FB69033303F00303FB6013
:1036E000BFF35F8F00BF7B681969FA6813469B00C0
:1036F0001344DB00CA187B681B6803F580539A608B
:103700007B68FA699A667B68BA69DA6600BF203717
:10371000BD4680BD0040008080B586B000AF7860B7
:103720007B681833BB60BB689B6A7B61BB68DB6AE4
:103730003B610123FB7347E00123BB737B69013BC2
:103740007B61BA683B6904339B0013445B68002BC0
:103750000AD13B6901333B613B69032B02D93B69C9
:10376000043B3B610023BB73BB7B002B2CD07B68ED
:10377000D9683A6913469B001344DB000B441B686D
:10378000002B1FDBBA683B6904339B0013445B6862
:10379000184604F0A5FFBA683B6904339B00134444
:1037A00000225A603B6901333B613B69032B02D91C
:1037B0003B69043B3B61BB687A699A62BB683A69C2
:1037C000DA6201E00023FB737B69002B02D0FB7BF4
:1037D000002BB1D1002318461837BD4680BD00002C
:1037E00080B586B000AF78607B681B689B6B7B619F
:1037F0007B681B6803F580535B693B617B681B68D2
:1038000003F58053DB69FB604B4B5B69BB603B6935
:1038100003F04003002B0ED0FB6803F04003002BA5
:1038200009D07B681B6803F580531A46434B5361EC
:10383000786804F05BFA3B6903F00103002B0FD0BA
:10384000FB6803F00103002B0AD07B681B6803F5BB
:1038500080531A464FF001135361786804F056FA0A
:103860003B6903F40043002B42D0FB6803F40043A0
:10387000002B3DD07B68D3F8883043F008027B688A
:10388000C3F888203B6903F40053002B1AD07B68EF
:103890001B6803F580535A69294B13407A68C2F8B4
:1038A0008C307B681B6803F58053DB697A6812688B
:1038B00023F4C03302F58052D3617B68E022C3F861
:1038C000842012E07B681B6803F580535A6948F234
:1038D000806313407A68C2F88C307B681B6803F5FC
:1038E00080531A4648F280635361786804F01EFAE8
:1038F0007B6903F00803002B0ED07B681B68DB6A32
:1039000003F060027B68C3F89420786800F01AF82E
:103910007B680022C3F89420BB6803F40023002BCB
:1039200006D0054B4FF400225A61786800F014F875
:1039300000BF1837BD4680BD003C0140400001007B
:1039400000207E0080B483B000AF786000BF0C37E9
:10395000BD465DF8047B704780B483B000AF7860EB
:1039600000BF0C37BD465DF8047B704780B586B05C
:1039700000AFF860B9607A603B60FB681B681B6948
:103980007B617B6903F01C037B61BB68DB029BB23C
:103990007A6913437B617B689B0103F4F8637A695E
:1039A00013437B617B6923F002037B617B6943F0F6
:1039B00001037B61FB681B687A691A61FFF772F982
:1039C00038610DE0FFF76EF902463B69D31AB3F593
:1039D000803F01D3012310E0FB681B681B697B61FA
:1039E0007B6903F00103002BECD1FB681B685B696A
:1039F0009BB21A463B681A60002318461837BD462A
:103A000080BD80B586B000AFF860B9607A603B6079
:103A1000FB681B681B697B617B6903F01C037B618E
:103A2000BB68DB029BB27A6913437B617B689B01B5
:103A300003F4F8637A6913437B617B6943F0020303
:103A40007B617B6943F001037B613B689AB2FB6851
:103A50001B685A61FB681B687A691A61FFF722F9D3
:103A600038610DE0FFF71EF902463B69D31AB3F542
:103A7000803F01D3012309E0FB681B681B697B6160
:103A80007B6903F00103002BECD1002318461837A3
:103A9000BD4680BD80B483B000AF786039603B68BC
:103AA000002B01D10123E6E07B681B681B6803F053
:103AB0001003002B14BF01230023DBB21A463B681E
:103AC00083F828207B681B681B6803F060023B6852
:103AD0005A627B681B681B6803F40073002B0CBFE1
:103AE00001230023DBB21A463B6883F820207B6861
:103AF0001B681B6803F48033002B14BF01230023D1
:103B0000DBB21A463B68DA777B681B681B6803F4F4
:103B10000053002B0CBF01230023DBB21A463B6885
:103B20009A777B681B681B6803F48053002B14BFD3
:103B300001230023DBB21A463B681A777B681B68B7
:103B40001B6803F400623B689A617B681B681B6812
:103B500003F480423B685A617B681B681B6803F46E
:103B60008003002B0CBF01230023DBB21A463B6805
:103B70005A747B681B681B6803F40003002B0CBF9E
:103B800001230023DBB21A463B681A747B681B686A
:103B90001B6803F08003002B14BF01230023DBB25A
:103BA0001A463B68DA737B681B681B6803F4602263
:103BB0003B689A607B681B681B6803F48063002B7A
:103BC00014BF01230023DBB21A463B681A717B68DD
:103BD0001B681B6803F00073002B14BF0123002334
:103BE000DBB21A463B689A737B681B689B6903F0DB
:103BF0000203002B14BF01230023DBB21A463B68EB
:103C000083F854207B681B689B6903F08003002BBA
:103C10000CBF01230023DBB21A463B6883F84C201B
:103C20007B681B689B6903F030023B681A657B6800
:103C30001B689B691B0C9AB23B689A647B681B6883
:103C40009B6903F00403002B14BF01230023DBB2A4
:103C50001A463B6883F856207B681B689B6903F013
:103C60000803002B14BF01230023DBB21A463B6874
:103C700083F85520002318460C37BD465DF8047BB9
:103C8000704780B582B000AF786039603B68002B28
:103C900001D101230BE07B68D3F88430102B05D1D0
:103CA0003968786800F08AF8002300E0012318469C
:103CB0000837BD4680BD000080B584B000AF786095
:103CC0007B681B681B69FB60FB6823F01C03FB60BF
:103CD00001F0CCFEB860BB68144A934204D8FB687C
:103CE00043F00803FB6019E0BB68114A934204D219
:103CF000FB6843F00C03FB6010E0BB680D4A934285
:103D00000CD9BB680C4A934204D8FB6843F0040307
:103D1000FB6003E0FB6843F01003FB607B681B68FB
:103D2000FA681A6100BF1037BD4680BDBF0E16028B
:103D300000879303FFE0F5057FD1F00880B483B0DE
:103D400000AF78607B68D3F8883018460C37BD46E2
:103D50005DF8047B704780B483B000AF78607B6807
:103D6000D3F88C3018460C37BD465DF8047B70479D
:103D700080B584B000AF78600023FB607B681B686F
:103D800003F580539B697A68126843F4801302F547
:103D9000805293617B681B6803F580539B69FB60CD
:103DA0000120FEF78BFF7B681A68FB6802F58052E2
:103DB000936100BF1037BD4680BD000080B584B060
:103DC00000AF786039607B681B681B68FB60FA682D
:103DD000534B1340FB603B689B7B5B063A68127C4D
:103DE000002A02D14FF4000200E0002213433A6897
:103DF000527C002A02D14FF4800200E000221A43D4
:103E00003B689B681A433B68DB7F1B041A433B6893
:103E10005B6913433A68927F002A02D14FF4005243
:103E200000E000221A433B681B7F1B031A433B68D8
:103E30009B691A433B681B799B0213433A6892F8CB
:103E40002020002A02D14FF4007200E000221A4321
:103E50003B68DB7BDB011A433B685B6A1A433B68C8
:103E600093F828301B011343FA681343FB607B6807
:103E70001B68FA681A607B681B681B68FB6001207E
:103E8000FEF71CFF7B681B68FA681A607B681B687A
:103E90009B69FB60FA684FF641731340FB603B6817
:103EA0009B6C1B043A6892F84C20002A01D18022B6
:103EB00000E000221A433B681B6D13433A6892F8F6
:103EC0005520012A01D1082200E0002213433A685C
:103ED00092F85620012A01D1042200E00022134367
:103EE0003A6892F85420012A01D1022200E000220F
:103EF0001343FA681343FB607B681B68FA689A6196
:103F00007B681B689B69FB600120FEF7D7FE7B681E
:103F10001B68FA689A6100BF1037BD4680BD00BFBC
:103F20000F8120FD80B584B000AF786039607B6878
:103F30001B6803F580539B69FB60FA683D4B134097
:103F4000FB603B681B7B002B02D14FF0806200E0DE
:103F500000223B685B7B5B0613433A68527F002A72
:103F600002D14FF4801200E000221A433B689B7B91
:103F70005B051A433B685B691A433B681B7FDB01A7
:103F80001A433B689B7F9B011A433B681B6A1A4399
:103F90003B6893F824309B001343FA681343FB609B
:103FA0007B681B6803F580531A46FB6893617B6846
:103FB0001B6803F580539B69FB600120FEF77EFEC2
:103FC0007B681B6803F580531A46FB6893613B6866
:103FD0001B795A063B689B681A433B689B691A43E6
:103FE0003B681B691A433B6893F82530DB011A4391
:103FF0003B689B6A9B001A433B681B6813437A68C3
:10400000126843F4000302F5805213607B681B685A
:1040100003F580531B68FB600120FEF74FFE7B68B1
:104020001B6803F580531A46FB68136000BF103706
:10403000BD4680BD233FDEF880B5A6B000AF7860F6
:10404000012387F84430012387F845300023FB63C0
:10405000002387F85330012387F85230002387F874
:104060005030012387F84230012387F8383000238D
:1040700087F85430002387F843300023BB650023C2
:1040800087F85C300023FB67002387F8803000232B
:10409000C7F88430002387F88A30002387F88830F7
:1040A0004FF48043BB644FF40063FB64002387F844
:1040B000893007F1340319467868FFF77FFE012342
:1040C0003B7501237B75012387F825300123BB75E0
:1040D0000023FB61002387F82430002387F8263073
:1040E0000023BB62012387F82C3001233B734FF47C
:1040F00080333B614FF480033B624FF40053BB615C
:10410000012387F82D3000233B630023BB6007F1B8
:10411000080319467868FFF705FF00BF9837BD46CA
:1041200080BD000080B487B000AFF860B9607A60ED
:104130007B6805331B781B027A68043212781343BC
:104140007B61BA68114B13441A467B6913607B6824
:1041500003331B781A067B6802331B781B041A434F
:104160007B6801331B781B0213437A681278134370
:104170007B61BA68064B13441A467B69136000BF23
:104180001C37BD465DF8047B704700BF408002408D
:104190004480024080B485B000AF78600023FB60AB
:1041A0003EE07B68D968FA6813469B001344DB0045
:1041B0000B44BB60BB6800221A60BB6800225A60D7
:1041C000BB6800229A60BB680022DA60B9687B682D
:1041D000FA68063243F82210BB681B6843F4801269
:1041E000BB681A60FB68022B0CD87B68D968FB6837
:1041F0005A1C13469B001344DB000B441A46BB6851
:10420000DA6004E07B68DB681A46BB68DA60BB688A
:104210001B6843F44002BB681A60FB680133FB6013
:10422000FB68032BBDD97B6800229A627B68DA6841
:104230007B681B6803F580531A6100BF1437BD46C5
:104240005DF8047B704780B485B000AF78600023D0
:10425000FB6048E07B681969FA6813469B001344C9
:10426000DB000B44BB60BB6800221A60BB68002205
:104270005A60BB6800229A60BB680022DA60BB68A3
:1042800000221A62BB6800225A62BB684FF00042EB
:104290001A607B685B6943F48042BB685A60BB6804
:1042A0005B6823F00042BB685A60B9687B68FA68B3
:1042B000123243F82210FB68022B0CD87B68196974
:1042C000FB685A1C13469B001344DB000B441A4640
:1042D000BB68DA6004E07B681B691A46BB68DA6079
:1042E000FB680133FB60FB68032BB3D97B680022BA
:1042F000DA657B6800221A667B6800229A667B6812
:104300000022DA667B6800229A657B681A697B68FE
:104310001B6803F58053DA6000BF1437BD465DF8B3
:10432000047B704780B491B000AFF860B9607A60E8
:10433000FB6818337B627B6A1B69FB637B6A1B69C2
:104340003B6200237B637B6AFA6B53F822303B634A
:10435000BB689B68FB620023BB623B6B1B6803F07E
:104360000043B3F1004F07D07A6AFB6B04339B0024
:1043700013445B68002B01D0022311E17B6B0133F6
:104380007B63FB6A1B681A463B6B9A603B6B5A68FF
:10439000864B1340FA6A52681A433B6B5A60BB68FB
:1043A0001B6803F00103002B08D03B6B1B6823F450
:1043B0004002BB685B691A433B6B1A60BB681B68B1
:1043C00003F02003002B08D03B6B1B6823F04062F6
:1043D000BB681B691A433B6B1A60BB681B6803F020
:1043E0000403002B05D03B6B1B6843F080023B6B42
:1043F0001A603B6B1B6843F080523B6B1A6082E093
:104400003B6B1B6823F000523B6B1A607B68002BF0
:1044100006D03B6B1B6843F080423B6B1A6005E0A3
:104420003B6B1B6823F080423B6B1A60FB6B0133D4
:10443000FB63FB6B032B02D9FB6B043BFB637B6AC7
:10444000FA6B53F822303B633B6B1B6803F000436D
:10445000B3F1004F07D07A6AFB6B04339B0013441F
:104460005B68002B29D03B6AFB637B6AFA6B53F8CD
:1044700022303B630023BB6319E0BFF35F8F00BFB3
:104480003B6B1B6823F000423B6B1A60FB6B0133F4
:10449000FB63FB6B032B02D9FB6B043BFB637B6A67
:1044A000FA6B53F822303B63BB6B0133BB63BA6BCF
:1044B0007B6B9A42E1D3022372E03B6B1B6823F0D3
:1044C00080523B6B1A607B6B01337B63FB6A9B689A
:1044D000FB62FB6A1B681A463B6B9A603B6B5A682F
:1044E000324B1340FA6A52681A433B6B5A60BB6AFC
:1044F0000133BB62BFF35F8F00BF3B6B1B6843F0B0
:1045000000423B6B1A60FB6A9B68002B7FF478AF1C
:104510007B68002B06D03B6B1B6843F080423B6BF3
:104520001A6005E03B6B1B6823F080423B6B1A600E
:104530003B6B1B6843F000523B6B1A607B6A3A6A24
:1045400053F822303B63BFF35F8F00BF3B6B1B68A8
:1045500043F000423B6B1A607B6A5A6A796AFB6BD4
:1045600004339B000B445A607B6AFA6B1A61EFF3C9
:1045700010833B613B69FB6101237B617B6983F3B2
:10458000108800BF7B6A9A6ABB6A13445A1C7B6A14
:104590009A62FB69BB61BB6983F3108800BF00238B
:1045A00018464437BD465DF8047B704700E0FFFFC6
:1045B00080B586B000AFF860B960C7E90023274B2B
:1045C0001B7D012B01D1022343E0244B01221A75EC
:1045D0004CF2503000F078F80346FB75FB7D002B61
:1045E00033D1FB68032B23D801A252F823F000BF7C
:1045F000014600080D460008194600082546000837
:104600003B781946B86800F021F912E03B8819465A
:10461000B86800F0F5F80CE03B681946B86800F09F
:10462000C9F806E0D7E90023B86800F08DF800E08B
:1046300000BF4CF2503000F047F80346FB75084BC2
:104640001B69074A23F001031361044B00221A750A
:10465000FB7D18461837BD4680BD00BFA83C002032
:10466000003C024080B483B000AF0023FB710B4BD1
:104670001B69002B0BDA094B094A5A60074B094AA0
:104680005A60064B1B69002B01DA0123FB71FB7991
:1046900018460C37BD465DF8047B7047003C02406D
:1046A00023016745AB89EFCD80B400AF054B1B6993
:1046B000044A43F00043136100231846BD465DF8E9
:1046C000047B7047003C024080B584B000AF786046
:1046D0000023FB601A4B00229A61FEF7E3FAF860B0
:1046E00010E07B68B3F1FF3F0CD07B68002B07D054
:1046F000FEF7D8FA0246FB68D31A7A689A4201D2CA
:10470000032319E00F4BDB6803F48033002BE8D15F
:104710000C4BDB6803F0F203002B03D000F0BAF877
:10472000012309E0074BDB6803F00103002B02D0F3
:10473000044B0122DA60002318461037BD4680BDC5
:10474000A83C0020003C024080B485B000AFF86077
:10475000C7E90023164B1B69154A23F44073136104
:10476000134B1B69124A43F440731361104B1B69CE
:104770000F4A43F001031361FB683A681A60BFF304
:104780006F8F00BFD7E900014FF000024FF0000328
:104790000A000023F968043113460B60BFF34F8F02
:1047A00000BF00BF1437BD465DF8047B704700BFF3
:1047B000003C024080B483B000AF786039600F4B9A
:1047C0001B690E4A23F4407313610C4B1B690B4A9F
:1047D00043F400731361094B1B69084A43F001035A
:1047E00013617B683A681A60BFF34F8F00BF00BF48
:1047F0000C37BD465DF8047B704700BF003C0240AB
:1048000080B483B000AF78600B467B800E4B1B6991
:104810000D4A23F4407313610B4B1B690A4A43F49E
:1048200080731361084B1B69074A43F0010313614E
:104830007B687A881A80BFF34F8F00BF00BF0C37A8
:10484000BD465DF8047B7047003C024080B483B0F5
:1048500000AF78600B46FB700D4B1B690C4A23F4CC
:10486000407313610A4B0A4A1B691361084B1B69A9
:10487000074A43F0010313617B68FA781A70BFF3AB
:104880004F8F00BF00BF0C37BD465DF8047B7047FB
:10489000003C024080B400AF214BDB6803F0020310
:1048A000002B05D01F4B9B6943F020031D4A9361E9
:1048B0001B4BDB6803F01003002B05D0194B9B69E1
:1048C00043F01003174A9361154BDB6803F0200394
:1048D000002B05D0134B9B6943F00803114A9361E9
:1048E0000F4BDB6803F04003002B05D00D4B9B6999
:1048F00043F004030B4A9361094BDB6803F0800328
:10490000002B05D0074B9B6943F00203054A9361D6
:10491000034BF222DA6000BFBD465DF8047B7047AE
:10492000003C0240A83C002080B584B000AF786015
:1049300039600023BB60304B1B7D012B01D102236A
:1049400056E02D4B01221A754CF25030FFF7BCFE99
:104950000346FB73FB7B002B46D13B684FF0FF32D5
:104960001A607B681B68012B15D17B681B69DAB262
:104970007B685B681946104600F044F84CF25030F2
:10498000FFF7A2FE0346FB731C4B1A691B491C4B25
:1049900013400B6128E07B689B68BB601CE07B6870
:1049A0001B69DBB21946B86800F068F84CF2503069
:1049B000FFF78AFE0346FB73104B1B690F4A23F077
:1049C000FA031361FB7B002B03D03B68BA681A60C3
:1049D0000AE0BB680133BB607B68DA687B689B6870
:1049E0001344BA689A42DAD3034B00221A75FB7B50
:1049F00018461037BD4680BDA83C0020003C024050
:104A0000FB7FFFFF80B483B000AF03463960FB71CA
:104A1000194B1B69184A23F4407313613B68032B3D
:104A200007D1154B1A69144948F2040313430B616B
:104A30000FE03B68022B06D10F4B1B690E4A43F473
:104A40000043136105E00C4B1B690B4A43F0040360
:104A50001361094B1A69FB791B021343064A43F49D
:104A600080331361BFF34F8F00BF00BF0C37BD46CB
:104A70005DF8047B704700BF003C024080B485B005
:104A800000AF78600B46FB700023FB60FB78002BC7
:104A900002D10023FB6010E0FB78012B03D14FF41F
:104AA0008073FB6009E0FB78022B03D14FF40073A5
:104AB000FB6002E04FF44073FB607B680B2B02D974
:104AC0007B6804337B60154B1B69144A23F44073E5
:104AD0001361124B1A691149FB6813430B610F4BA9
:104AE0001B690E4A23F0F80313610C4B1A697B68AB
:104AF000DB001343094A43F002031361074B1B69B0
:104B0000064A43F480331361BFF34F8F00BF00BFE9
:104B10001437BD465DF8047B704700BF003C02407F
:104B200080B489B000AF786039600023FB61002356
:104B30007B6100233B610023BB610023FB6175E1C6
:104B40000122FB6902FA03F37B613B681B687A6907
:104B500013403B613A697B699A4240F064813B684B
:104B60005B6803F00303012B05D03B685B6803F02F
:104B70000303022B30D17B689B68BB61FB695B0040
:104B8000032202FA03F3DB43BA691340BB613B68BB
:104B9000DA68FB695B0002FA03F3BA691343BB618D
:104BA0007B68BA699A607B685B68BB610122FB69BC
:104BB00002FA03F3DB43BA691340BB613B685B68ED
:104BC0001B0903F00102FB6902FA03F3BA691343FC
:104BD000BB617B68BA695A603B685B6803F003039A
:104BE000032B17D07B68DB68BB61FB695B0003228A
:104BF00002FA03F3DB43BA691340BB613B689A686E
:104C0000FB695B0002FA03F3BA691343BB617B687B
:104C1000BA69DA603B685B6803F00303022B23D1B7
:104C2000FB69DA087B68083253F82230BB61FB6904
:104C300003F007039B000F2202FA03F3DB43BA6978
:104C40001340BB613B681A69FB6903F007039B00D3
:104C500002FA03F3BA691343BB61FB69DA087B68A4
:104C60000832B96943F822107B681B68BB61FB6995
:104C70005B00032202FA03F3DB43BA691340BB6112
:104C80003B685B6803F00302FB695B0002FA03F315
:104C9000BA691343BB617B68BA691A603B685B6899
:104CA00003F44033002B00F0BE80664B5B6C654A1A
:104CB00043F480435364634B5B6C03F48043FB60B9
:104CC000FB68614AFB699B08023352F82330BB61E1
:104CD000FB6903F003039B000F2202FA03F3DB439B
:104CE000BA691340BB617B68584A934237D07B68EE
:104CF000574A934231D07B68564A93422BD07B6807
:104D0000554A934225D07B68544A93421FD07B6812
:104D1000534A934219D07B68524A934213D07B681E
:104D2000514A93420DD07B68504A934207D07B682A
:104D30004F4A934201D1092312E00A2310E00823CD
:104D40000EE007230CE006230AE0052308E0042315
:104D500006E0032304E0022302E0012300E0002335
:104D6000FA6902F0030292009340BA691343BB61EF
:104D70003549FB699B080233BA6941F823203D4B52
:104D80009B68BB613B69DB43BA691340BB613B680D
:104D90005B6803F48013002B03D0BA693B691343AB
:104DA000BB61344ABB699360324BDB68BB613B69D2
:104DB000DB43BA691340BB613B685B6803F40013D3
:104DC000002B03D0BA693B691343BB61294ABB6915
:104DD000D360284B5B68BB613B69DB43BA69134016
:104DE000BB613B685B6803F40033002B03D0BA69F6
:104DF0003B691343BB611F4ABB6953601D4B1B6872
:104E0000BB613B69DB43BA691340BB613B685B68CC
:104E100003F48033002B03D0BA693B691343BB61B1
:104E2000144ABB691360FB690133FB61FB690F2BFB
:104E30007FF686AE00BF00BF2437BD465DF8047B19
:104E4000704700BF003802400038014000000240B7
:104E50000004024000080240000C02400010024022
:104E60000014024000180240001C024000200240D2
:104E700000240240003C014080B483B000AF786061
:104E80000B467B8013467B707B78002B03D07A889F
:104E90007B689A6103E07B881A047B689A6100BF93
:104EA0000C37BD465DF8047B7047000080B400AF4E
:104EB000054B1B68044A43F48073136000BFBD4672
:104EC0005DF8047B704700BF0070004080B582B081
:104ED00000AF00237B60234B1B6C224A43F08053BE
:104EE0001364204B1B6C03F080533B603B681E4BEC
:104EF0001B681D4A43F480331360FDF7D3FE7860CE
:104F000009E0FDF7CFFE02467B68D31AB3F57A7F3E
:104F100001D9032322E0144B5B6803F48033B3F51B
:104F2000803FEED1104B1B680F4A43F400331360EF
:104F3000FDF7B8FE786009E0FDF7B4FE02467B6835
:104F4000D31AB3F57A7F01D9032307E0064B5B68D8
:104F500003F40033B3F5003FEED1002318460837C1
:104F6000BD4680BD003802400070004080B582B070
:104F700000AFFDF797FE7860664B1B68654A43F00B
:104F80000103136008E0FDF78DFE02467B68D31A2B
:104F9000022B01D90323B8E05E4B1B6803F0020328
:104FA000002BF0D05B4B1B685A4A43F08003136020
:104FB000FDF778FE7860574B00229A600AE0FDF713
:104FC00071FE02467B68D31A41F28832934201D9BE
:104FD00003239AE04F4B9B6803F00C03002BEED1A8
:104FE000FDF760FE78604B4B1B684A4A23F4502360
:104FF000136008E0FDF756FE02467B68D31A642B67
:1050000001D9032381E0434B1B6803F40033002BD9
:10501000F0D1FDF747FE78603E4B1B683D4A23F018
:105020008073136008E0FDF73DFE02467B68D31AEB
:10503000022B01D9032368E0364B1B6803F0007391
:10504000002BF0D1FDF72EFE7860324B1B68314A01
:1050500023F08063136008E0FDF724FE02467B68BE
:10506000D31A642B01D903234FE02A4B1B6803F0AA
:105070000063002BF0D1FDF715FE7860254B1B680F
:10508000244A23F08053136008E0FDF70BFE02462C
:105090007B68D31A642B01D9032336E01D4B1B68B0
:1050A00003F00053002BF0D11A4B1B4A5A60194BE6
:1050B0001A4AC3F88420174B184AC3F88820154BA6
:1050C000DB68144A23F4FE43D360124BDB68114AB9
:1050D00043F47F03D3600F4B5B6F0E4A23F0010351
:1050E00053670C4B5B6F0B4A43F0807353670C4B59
:1050F0000C4A1A600C4B1B681846FCF7ABFF0346C2
:10510000002B01D0012300E0002318460837BD46DC
:1051100080BD00BF00380240103000240030002461
:10512000040000200024F4000800002080B586B0B0
:1051300000AF78600023FB757B68002B01D1012351
:105140009BE27B681B6803F00103002B00F0878063
:10515000964B9B6803F00C03042B0CD0934B9B687D
:1051600003F00C03082B12D1904B5B6803F480030F
:10517000B3F5800F0BD18D4B1B6803F40033002B6C
:105180006CD07B685B68002B68D1012375E27B687B
:105190005B68B3F5803F06D1844B1B68834A43F4B8
:1051A000803313602EE07B685B68002B0CD17F4B53
:1051B0001B687E4A23F4803313607C4B1B687B4A58
:1051C00023F4802313601DE07B685B68B3F5A02F98
:1051D0000CD1764B1B68754A43F480231360734BE4
:1051E0001B68724A43F4803313600BE06F4B1B68FB
:1051F0006E4A23F4803313606C4B1B686B4A23F4B4
:10520000802313607B685B68002B13D0FDF74AFD99
:10521000386108E0FDF746FD02463B69D31A642B6E
:1052200001D9032329E2614B1B6803F40033002BEF
:10523000F0D014E0FDF736FD386108E0FDF732FDEF
:1052400002463B69D31A642B01D9032315E2574B5D
:105250001B6803F40033002BF0D100E000BF7B6833
:105260001B6803F00203002B69D0504B9B6803F0CE
:105270000C03002B0BD04D4B9B6803F00C03082B49
:105280001CD14A4B5B6803F48003002B16D1474BBB
:105290001B6803F00203002B05D07B68DB68012B41
:1052A00001D00123E9E1414B1B6823F0F8027B6840
:1052B0001B69DB003D4913430B6040E07B68DB6802
:1052C000002B23D0394B1B68384A43F0010313608D
:1052D000FDF7E8FC386108E0FDF7E4FC02463B69B5
:1052E000D31A022B01D90323C7E1304B1B6803F00B
:1052F0000203002BF0D02D4B1B6823F0F8027B68D3
:105300001B69DB00294913430B6018E0274B1B681E
:10531000264A23F001031360FDF7C4FC386108E05E
:10532000FDF7C0FC02463B69D31A022B01D90323C7
:10533000A3E11E4B1B6803F00203002BF0D17B6836
:105340001B6803F00803002B38D07B685B69002BD7
:1053500019D0164B5B6F154A43F001035367FDF7F5
:10536000A1FC386108E0FDF79DFC02463B69D31AB9
:10537000022B01D9032380E10C4B5B6F03F0020386
:10538000002BF0D01AE0094B5B6F084A23F00103B1
:105390005367FDF787FC38610AE0FDF783FC02469E
:1053A0003B69D31A022B03D9032366E1003802407C
:1053B000924B5B6F03F00203002BEED17B681B68FE
:1053C00003F00403002B00F0A4808C4B1B6C03F053
:1053D0008053002B0DD1894B1B6C884A43F08053BE
:1053E0001364864B1B6C03F08053BB60BB680123C6
:1053F000FB75834B1B6803F48073002B18D1804B23
:105400001B687F4A43F480731360FDF74BFC3861DF
:1054100008E0FDF747FC02463B69D31A642B01D92B
:1054200003232AE1764B1B6803F48073002BF0D032
:105430007B689B68012B06D1704B1B6F6F4A43F052
:10544000010313672DE07B689B68002B0CD16B4B2D
:105450001B6F6A4A23F001031367684B1B6F674A8F
:1054600023F0040313671CE07B689B68052B0CD1B9
:10547000624B1B6F614A43F0040313675F4B1B6F62
:105480005E4A43F0010313670BE05C4B1B6F5B4A02
:1054900023F001031367594B1B6F584A23F0040391
:1054A00013677B689B68002B15D0FDF7FBFB386109
:1054B0000AE0FDF7F7FB02463B69D31A41F2883256
:1054C000934201D90323D8E04C4B1B6F03F0020336
:1054D000002BEED014E0FDF7E5FB38610AE0FDF7A4
:1054E000E1FB02463B69D31A41F28832934201D96B
:1054F0000323C2E0414B1B6F03F00203002BEED1EC
:10550000FB7D012B05D13D4B1B6C3C4A23F08053A6
:1055100013647B689B69002B00F0AE80374B9B685F
:1055200003F00C03082B6DD07B689B69022B4BD1D9
:10553000324B1B68314A23F080731360FDF7B2FBD6
:10554000386108E0FDF7AEFB02463B69D31A022B37
:1055500001D9032391E0294B1B6803F00073002B52
:10556000F0D17B68DA697B681B6A1A437B685B6AE7
:105570009B011A437B689B6A5B08013B1B041A432F
:105580007B68DB6A1B061A437B681B6B1B071B4986
:1055900013434B60194B1B68184A43F08073136028
:1055A000FDF780FB386108E0FDF77CFB02463B69B4
:1055B000D31A022B01D903235FE0104B1B6803F0C1
:1055C0000073002BF0D057E00C4B1B680B4A23F004
:1055D00080731360FDF766FB386108E0FDF762FB3E
:1055E00002463B69D31A022B01D9032345E0034B42
:1055F0001B6803F00073002BF0D13DE0003802403F
:10560000007000401F4B5B68FB607B689B69012B4F
:1056100030D0FB6803F480027B68DB699A4229D1B1
:10562000FB6803F03F027B681B6A9A4222D1FA684A
:1056300047F6C07313407A68526A9201934219D1B7
:10564000FB6803F440327B689B6A5B08013B1B04E8
:105650009A420FD1FB6803F070627B68DB6A1B061D
:105660009A4207D1FB6803F0E0427B681B6B1B0783
:105670009A4201D0012300E0002318461837BD46A6
:1056800080BD00BF0038024080B584B000AF7860B4
:1056900039600023FB607B68002B01D10123D0E03F
:1056A0006A4B1B6803F00F033A689A4210D9674BA4
:1056B0001B6823F00F0265493B6813430B60634B83
:1056C0001B6803F00F033A689A4201D00123B8E047
:1056D0007B681B6803F00203002B20D07B681B68EB
:1056E00003F00403002B05D0594B9B68584A43F440
:1056F000E05393607B681B6803F00803002B05D020
:10570000534B9B68524A43F460439360504B9B68F1
:1057100023F0F0027B689B684D4913438B607B68E4
:105720001B6803F00103002B40D07B685B68012BF2
:1057300007D1474B1B6803F40033002B15D101231D
:105740007FE07B685B68022B07D1414B1B6803F04D
:105750000073002B09D1012373E03D4B1B6803F05C
:105760000203002B01D101236BE0394B9B6823F02E
:1057700003027B685B68364913438B60FDF792FA3E
:10578000F8600AE0FDF78EFA0246FB68D31A41F290
:105790008832934201D9032353E02D4B9B6803F0D9
:1057A0000C027B685B689B009A42EBD1274B1B681D
:1057B00003F00F033A689A4210D2244B1B6823F07F
:1057C0000F0222493B6813430B60204B1B6803F018
:1057D0000F033A689A4201D0012332E07B681B68CC
:1057E00003F00403002B08D0194B9B6823F4E0520C
:1057F0007B68DB68164913438B607B681B6803F08A
:105800000803002B09D0124B9B6823F460427B688D
:105810001B69DB000E4913438B6000F021F8024640
:105820000B4B9B681B0903F00F030A49CB5C22FA60
:1058300003F3094A1360094B1B681846FCF70AFC7E
:10584000002318461037BD4680BD00BF003C024013
:1058500000380240D0B001080400002008000020F9
:105860002DE9B04F94B000AF00237B640023FB64AC
:1058700000233B640023BB64794B9B6803F00C035B
:10588000082B0DD0082B00F2E180002B02D0042B56
:1058900003D0DBE0734BBB64DBE0734BBB64D8E04D
:1058A0006F4B5B6803F03F037B646D4B5B6803F4F5
:1058B0008003002B63D06A4B5B689B090022BB63AB
:1058C000FA63BB6BC3F308033B6300237B63D7E935
:1058D0000C4522462B464FF000004FF000015901C5
:1058E00041EAD261500102460B462146511A396104
:1058F000294663EB01037B614FF000024FF0000388
:10590000D7E904AB59468B01514643EA91635146AE
:105910008A015146B2EB0108594663EB01094FF089
:1059200000024FF000034FEAC90343EA58734FEAFD
:10593000C80290469946234618EB0303BB602B46EA
:1059400049EB0303FB604FF000024FF00003D7E97F
:10595000024529464B02214643EAD15321464A02D9
:10596000104619467B6C0022BB62FA62D7E90A2313
:10597000FAF7BEFC02460B461346FB6458E0384B70
:105980005B689B09002218461146C0F308033B627E
:1059900000237B62D7E9088942464B464FF000005E
:1059A0004FF00001590141EAD261500102460B4615
:1059B0004146B2EB010A494663EB010B4FF000028E
:1059C0004FF000034FEA8B1343EA9A634FEA8A12BF
:1059D000B2EB0A0463EB0B054FF000024FF000033B
:1059E000EB0043EA5473E20014461D464346E318B5
:1059F0003B604B4645EB03037B604FF000024FF0EA
:105A00000003D7E9004529468B02214643EA91531A
:105A100021468A02104619467B6C0022BB61FA615E
:105A2000D7E90623FAF764FC02460B461346FB64EB
:105A30000B4B5B681B0C03F0030301335B003B64FF
:105A4000FA6C3B6CB2FBF3F3BB6402E0054BBB6446
:105A500000BFBB6C18465037BD46BDE8B08F00BFD5
:105A6000003802400024F40000127A0080B400AF35
:105A7000034B1B681846BD465DF8047B704700BFAA
:105A80000400002080B500AFFFF7F0FF0246054B91
:105A90009B689B0A03F007030349CB5C22FA03F3DC
:105AA000184680BD00380240E0B0010880B500AF64
:105AB000FFF7DCFF0246054B9B685B0B03F0070317
:105AC0000349CB5C22FA03F3184680BD003802403C
:105AD000E0B0010880B483B000AF786039607B68C3
